:1000000000800020BD010000CDC7000085C70000B2
:1000100085C7000085C7000085C7000085C70000B0
:1000200085C7000085C7000085C70000CDC7000058
:10003000CDC7000085C700009DBE0000A1BE000026
:10004000CDC70000CDC70000CDC70000CDC7000060
:10005000CDC70000CDC70000CDC70000CDC7000050
:10006000CDC70000CDC70000CDC70000CDC7000040
:10007000CDC70000CDC70000CDC70000CDC7000030
:10008000CDC70000CDC70000CDC70000CDC7000020
:10009000CDC70000CDC70000CDC70000CDC7000010
:1000A000E17D0000ED7D0000CDC70000CDC7000060
:1000B000CDC70000CDC70000CDC70000CDC70000F0
:1000C000CDC70000CDC70000CDC70000CDC70000E0
:1000D000CDC70000CDC70000CDC70000CDC70000D0
:1000E000CDC70000CDC70000CDC70000CDC70000C0
:1000F000CDC70000CDC70000CDC70000CDC70000B0
:10010000CDC70000CDC70000CDC70000CDC700009F
:10011000CDC70000CDC70000CDC70000CDC700008F
:10012000CDC70000CDC70000CDC70000CDC700007F
:10013000CDC70000CDC700000DBD0000CDC7000039
:10014000CDC70000C58D0000CDC70000CDC70000A1
:100150008DBF0000A1BF0000B5BF0000C9BF0000F7
:10016000CDC7000055D10000CDC70000CDC70000AD
:10017000CDC70000CDC70000CDC70000CDC700002F
:10018000CDC70000CDC70000CDC70000CDC700001F
:10019000CDC70000CDC70000CDC70000CDC700000F
:1001A000CDC70000CDC70000CDC70000CDC70000FF
:1001B000CDC70000CDC70000CDC70000564B4CF2A4
:1001C000205210B51A804DF628121A8000BF00BFC9
:1001D0000CF000FB514B4FF010621A60504A9A60CD
:1001E000504ADA60504A136813F4807304D14F49BF
:1001F0000B604FF4A85313604D4B1A78110703D5C9
:100200001A7842F008021A704A4B4B492A221A7097
:100210004A4A4B4B8B4204D252F8040F43F8040B6A
:10022000F8E7484B484900228B4202D243F8042B9E
:10023000FAE74649464A002352F8230041F82300D2
:1002400001336F2BF8D1434B434A802103F8011B44
:100250009342FBD1414B3D4A1A60414B8A221A70AE
:10026000A3F5805324225A70A0221A709A7992071B
:10027000FCD59A79D406FCD43A4A937903F00C035E
:10028000082B384BF9D105221A7143225A719A79F9
:100290009006FCD5334A9179324B4906FBD5324A58
:1002A0004FF0817111600521516020221A709A79F6
:1002B00002F00C020C2AFAD12C4B2D4A1A602D4B5D
:1002C0002D4A1A6000225A60072243F8042C2B4A58
:1002D000C3F80C2D62B60CF0F3FD144B1B68DA0763
:1002E00005D527480CF0E0FB264B274A1A60274B20
:1002F0001B785B0609D5234C234B22689A4204D114
:100300001F480CF0D1FB002323600FF0D1FA0CF052
:1003100067FA0CF095F9FEE70E20054030800440A6
:10032000823F04000100002B10D0034014D0034092
:1003300002D0074000E007407894FF1F246A0100C4
:100340002087FF1F7894FF1FE8BCFF1F0082FF1F5C
:100350000000000000E400E05FE400E008ED00E0E1
:1003600000500640004006404480044004800440A1
:10037000C010050014E000E03F190100000020203B
:10038000F9535F601CE00340A5C3945A00F0074096
:10039000FFFFFFFFFFFFFFFFFFFFFFFFFFFFFFFF6D
:1003A000FFFFFFFFFFFFFFFFFFFFFFFFFFFFFFFF5D
:1003B000FFFFFFFFFFFFFFFFFFFFFFFFFFFFFFFF4D
:1003C000FFFFFFFFFFFFFFFFFFFFFFFFFFFFFFFF3D
:1003D000FFFFFFFFFFFFFFFFFFFFFFFFFFFFFFFF2D
:1003E000FFFFFFFFFFFFFFFFFFFFFFFFFFFFFFFF1D
:1003F000FFFFFFFFFFFFFFFFFFFFFFFFFFFFFFFF0D
:10040000FFFFFFFFFFFFFFFFFFFFFFFFDEF9FFFF23
:1004100010B5054C237833B9044B13B10448AFF33E
:1004200000800123237010BD7894FF1F000000009E
:10043000206A0100084B10B51BB108490848AFF30A
:1004400000800848036803B910BD074B002BFBD0A0
:10045000BDE81040184700BF000000007C94FF1F5B
:10046000206A01007894FF1F000000002DE9F04190
:1004700007460E4615461C464FF00808F9090520A8
:1004800006F004FD0121072006F000FD062006F01D
:1004900011FB002140EA4707072006F0F7FCB8F1FE
:1004A0000108FFB2EAD10827F109052006F0EEFCA9
:1004B0000121072006F0EAFC062006F0FBFA0021E5
:1004C00040EA4606072006F0E1FC013FF6B2EBD118
:1004D0000826E909052006F0D9FC0121072006F0CD
:1004E000D5FC062006F0E6FA002140EA4505072083
:1004F00006F0CCFC013EEDB2EBD10825E109052068
:1005000006F0C4FC0121072006F0C0FC062006F01E
:10051000D1FA002140EA4404072006F0B7FC013D6F
:10052000E4B2EBD12046BDE8F08100BF1B4B1C4A72
:10053000588CD98CB3F81CC0F0B51D8C9E8CB3F8C8
:1005400014E0DC8A1F8B00EB052506EB052501EB8B
:10055000052515615D8855709D889570DD88D5707D
:100560001D8915715D8955719D899571DD89D571DB
:100570001D78D98B1E8A588B1672DF2D094E01EB20
:100580000C2304EB0E2400EB072094BF0021012173
:1005900054819081D38115703170F0BD90B8FF1FE8
:1005A0001097FF1F6597FF1F10B51B4C0420217883
:1005B00006F06CFC012104200CF02CFC002107202B
:1005C00006F064FC0021052006F060FC01210620F5
:1005D00006F05CFC0021072006F058FC14200CF00B
:1005E0001FFC2178042081F0010106F04FFC4FF43C
:1005F0001663013BFDD10420217806F047FC322030
:100600000CF00EFC00231A465321AC20FFF72EFFFE
:10061000024B01221A6010BD6597FF1F4097FF1F14
:1006200008B50121052006F031FC0121072006F064
:100630002DFC074B1978042081F0010106F026FCFF
:100640000121042006F022FC024B00221A6008BDA2
:100650006597FF1F4097FF1F08B5C2B2C0F307217F
:1006600000234C20FFF702FF1E20BDE808400CF0DD
:10067000D7BB00BF0F4B9B89202B0BD0402B0ED03C
:10068000802B11D0B3F5807F0B4B186808BF20F08A
:100690007F007047084B186820F00F007047064B2A
:1006A000186820F01F007047034B186820F03F00C7
:1006B000704700BF1097FF1F1096FF1FF8B5024646
:1006C000FFF7D8FF002A064628DD571E164C174DA7
:1006D0007F0804EB870729682378CAB24020C1F35A
:1006E0000721FFF7C3FE2968A378CAB24820C1F3E7
:1006F0000721FFF7BBFE2B68A74203F101032B6024
:1007000004F104040AD0FFF7B5FF8642E3D0304677
:10071000FFF7A2FFFFF7AEFF0646DCE73046FFF724
:100720009BFF1020F8BD00BF90B8FF1F1096FF1F61
:10073000B0F80231C3B1B0F80031C35C0B70B0F84F
:100740000031B0F8022101339BB2013AB3F5807F4A
:10075000A0F80031A0F8022101D001207047002349
:10076000A0F80031012070471846704730B5114D90
:10077000114CB5F8020183B000238DF8073068B939
:1007800023784BB903F04CF8B5F8023133B923782C
:10079000002BF7D09DF8070003B030BD2378002B65
:1007A000F8D10DF107010348FFF7C2FF9DF80700DC
:1007B00003B030BD0C95FF1FFD96FF1FF8B50E1E50
:1007C00004461BDD0E4D05EB4607FFF7CFFF25F86E
:1007D000020FBD42F9D10A4D264435F8023FE2B27C
:1007E000C4F30721DBB2C020FFF740FE01342D2007
:1007F0000CF016FBB442F0D11020F8BDFCD0EAE7B3
:100800008EB8FF1FF8B5154BDB89984220D8144BE2
:100810001F68202806464FEA470713D905463C467D
:100820002046203D2021FFF7C9FF202D04F12004A0
:10083000F6D8A6F121035B092037203E07EB4317CA
:10084000A6EB431631463846FFF7B8FF1020F8BD37
:10085000044A1368013313601120F8BD1097FF1F7D
:100860001096FF1F90BAFF1FB0F80221B2F5807FEB
:100870000ED0B0F800311344FF2B88BFA3F580736E
:100880009BB20132C1540123A0F8022118467047DF
:1008900000231846704700BF08B5FFF767FF202800
:1008A00008D0094A09481368152101331360FFF77E
:1008B000DBFF08BD14210548FFF7D6FF10210348D0
:1008C000FFF7D2FF08BD00BF90BAFF1F4498FF1F7B
:1008D00010B50446FFF74AFF202808D00A4A0B4803
:1008E0001368152101331360FFF7BEFF10BD1421FB
:1008F0000648FFF7B9FF21460448FFF7B5FF10216E
:100900000248FFF7B1FF10BD90BAFF1F4498FF1FC8
:100910008038132817D8DFE800F013100D161616CC
:10092000161616161616161616161616160A53202C
:10093000FFF7CEBF1220FFF7CBBF0120FFF7C8BFE4
:100940000220FFF7C5BF0020FFF7C2BF70B50A4DF8
:100950002C4605F10806FFF709FF24F8020BB44204
:10096000F9D1AB792A79A9782878FFF77FFDBDE81E
:100970007040FFF7ADBF00BF90B8FF1F70B5061EF7
:1009800008DD114C04EB4605FFF7F0FE24F8020FDA
:10099000AC42F9D1FFF7EAFE202808D00B4A0C48F8
:1009A0001368152101331360FFF75EFF70BD14213A
:1009B0000748FFF759FF3046FFF780FE014604481D
:1009C000FFF752FF70BD00BF8EB8FF1F90BAFF1F28
:1009D0004498FF1F002828DD70B5461E26F001064A
:1009E000134C0236002521680023CAB22020C1F32F
:1009F0000721FFF73BFD01460E48FFF735FF216851
:100A00000023CAB22820C1F30721FFF72FFD0146BA
:100A10000848FFF729FF236802350133236002F0FD
:100A2000FFFEB542DFD1102070BD1020704700BF1F
:100A30001096FF1F4498FF1F38B50B4B00281C6809
:100A400010DD640005462544E2B2C4F30721FF230C
:100A5000A020FFF70BFD013401460448FFF704FF17
:100A6000AC42F1D1102038BD1096FF1F4498FF1FF3
:100A700008B5044A04481368152101331360FFF7D1
:100A8000F3FE08BD90BAFF1F4498FF1F10B5FFF793
:100A90006DFE0402FFF76AFE0444FFF767FE462876
:100AA0001BD0452804D011210E48FFF7DDFE10BDF4
:100AB0002046FFF7A7FE0446FFF758FE202803D084
:100AC000BDE81040FFF7D4BF14210648FFF7CCFE65
:100AD00021460448FFF7C8FE10BD2046BDE810407F
:100AE000FFF74CBF4498FF1F70B5FFF73FFE064667
:100AF000FFF73CFE0446FFF739FE0546FFF736FEDA
:100B0000202803D0BDE87040FFF7B2BF14210C4885
:100B1000FFF7AAFE462D04EB062406D0452D09D08A
:100B200011210748FFF7A0FE70BD2046FFF752FFD6
:100B30000146F6E72046FFF77FFF0146F1E700BFD9
:100B40004498FF1F08B5FFF711FE202808D0184A67
:100B500018481368152101331360FFF785FE08BD9F
:100B600014211448FFF780FE00231A46194630204E
:100B7000FFF77CFC01460F48FFF776FE002319467D
:100B800001223020FFF772FC01460A48FFF76CFE95
:100B90000023194602223020FFF768FC0146054871
:100BA000FFF762FE10210348FFF75EFE08BD00BF9D
:100BB00090BAFF1F4498FF1F38B5FFF7D7FD714B60
:100BC0001B78002B3FD1704AA0F120031070552BE9
:100BD0002CD8DFE803F0412B2B2B2B2B2B2B2B2B93
:100BE0002B2B2B2B2B2B93A02B2B2B2B2B2B2B2B78
:100BF0002B2B2B2B2B2B2B9A622B2B582B2B2B2B72
:100C00002B2B2B2B2B2B4E862B2B2B718F2B2B2B0C
:100C10002B2B2B2B2B2B393B2B2B4A2B2B2B2B2BE7
:100C20002B2B2B2B2B2B2B2B2B2BCECA574A136862
:100C300001331360FFF79AFD202800F09E801521F4
:100C40005348FFF711FE38BDFFF790FDFFF78EFD0B
:100C5000BDE83840FFF720BE4C4A4D4813681521C7
:100C600001331360FFF700FE38BDBDE83840FFF7E1
:100C70000DBF484B1B68002BEAD1474B01221A706D
:100C8000FFF792FCE4E7454C04F10A05FFF76EFD1F
:100C900024F8020BAC42F9D1DAE7414C04F1280503
:100CA000FFF764FD24F8020FA542F9D1FFF73EFCDF
:100CB000BDE83840FFF7F0BDFFF758FD394C206024
:100CC000FFF754FD236803EB00202060FFF7E4FDED
:100CD000314A13780133DBB2082B88BF012313702C
:100CE00038BD2A4B00221A60FFF79AFCBDE8384055
:100CF000FFF7D2BDBDE83840FFF728BE234B0022E6
:100D00001A60BDE83840FFF7C7BDFFF72FFDBDE80B
:100D10003840FFF7FDBDFFF729FD202804469BD191
:100D200014211B48FFF7A0FD41211948FFF79CFD46
:100D300056211748FFF798FD52211548FFF794FDFB
:100D400021461348FFF790FD49211148FFF78CFD1C
:100D500053210F48FFF788FD50210D48FFF784FD10
:100D600010210B48FFF780FD38BDBDE83840FFF784
:100D7000E9BEBDE83840FFF7B7BE12210448FFF7CF
:100D800073FD38BDFD96FF1F2697FF1F90BAFF1F0A
:100D90004498FF1F4097FF1FCD97FF1F90B8FF1F7C
:100DA0008EB8FF1F1096FF1FF0B5274B274A1B6810
:100DB00085B0039303991368CB1A632B01D805B050
:100DC000F0BD234C116023780133237002F028FD1D
:100DD000204B24781A7804F00304A2421AD01E4D46
:100DE0001C707826002210231C27019200932846AD
:100DF0000823314612222F82EE8108F0E5FE032CF3
:100E000008D8DFE804F01B02150F0122134912482D
:100E10000BF0E4F8124BDB78002BD0D001F046FA4F
:100E200005B0F0BD01220F490B480BF0D7F8F1E7F0
:100E300001220D4908480BF0D1F8EBE701220B49DC
:100E400005480BF0CBF8E5E78CBBFF1F9494FF1F20
:100E50000088FF1F2597FF1FDC97FF1F283C01001C
:100E60000497FF1F303C01002C3C0100243C010092
:100E700008B5FFF799FF074BB3F802313BB9064BB2
:100E80001B6803B908BDBDE8084001F00FBAFFF7C1
:100E900093FEF4E70C95FF1F90BAFF1F30B4074A8A
:100EA000074BD489158A1C71002201245D71D8700A
:100EB0001C7099705A7030BC704700BFDC97FF1FE0
:100EC000D097FF1F10B5364C2378D80784B059D47B
:100ED00099074AD45A073BD418072CD4D9061DD4F5
:100EE0009A060ED45B060AD50321022201238DE85F
:100EF0000E002C4809232022522109F0ADFA04B03B
:100F000010BD0921022201238DE80E00254803238C
:100F10001822502109F0A0FA2378E3E709210222E0
:100F200001238DE80E001F4803232222502109F0DF
:100F300093FA2378D4E70321022201238DE80E00DF
:100F4000184809232A22522109F086FA2378C5E796
:100F50000921022201238DE80E00124803232222D8
:100F60005A2109F079FA2378B6E7092102220123F0
:100F70008DE80E000B48032318225A2109F06CFA61
:100F80002378A7E70321022201238DE80E000548FC
:100F900009231622522109F05FFA237898E700BF4F
:100FA0009A94FF1FDC97FF1F70B5144B14499A7871
:100FB000144E002382B00B7002B13360124C002536
:100FC000132320460195294600931022802308F020
:100FD000FBFD33680D4AE581162120250C4825824A
:100FE0000FF028FA0A480FF08BFA0949024620460A
:100FF00002B0BDE870400AF0F1BF00BF0497FF1FC8
:101000000997FF1F8CB8FF1FDC97FF1F343C0100BE
:101010004C97FF1F30B51E4B9B7883B04BB11D4AD8
:101020001D4C13781D4901330725002013702570CE
:1010300008701B4C002113230191204600931022BD
:10104000802308F0C1FD202305222382E28107F0DE
:101050006BFF0EF0AFF913490EF0B8FA0DF0D0FDAA
:10106000114ACDE90001102110480FF0E3F90F48B3
:101070000FF046FA0D49024620460AF0AFFF0C4930
:101080002046042203B0BDE830400AF0A7BF00BFED
:101090000497FF1F6397FF1FFF96FF1FD097FF1F47
:1010A000DC97FF1F0000C8423C3C01004C97FF1F2B
:1010B000443C01002DE9F041344B354E1A7882B0A2
:1010C00012B13278002A51D15A78324F32B1327887
:1010D00039882F48914284BF013202709B784BB10E
:1010E0002D4A2E4C13782E4901330725002013700A
:1010F000257008702B4CDFF89880002511232946B5
:101100000093102280232046019508F05DFD33787E
:1011100005212022E18122825BB30122224920465F
:101120000AF05CFF2B4698F800100A2220460AF0CD
:101130007BFF03221D4920460AF050FF98F800303B
:10114000204637F813100AF0AFFF04221849204652
:101150000AF044FF98F8002037F812102B4620467A
:10116000102202B0BDE8F0410AF05EBF013A3270D1
:10117000AAE7398820460AF097FF0E492046062242
:1011800002B0BDE8F0410AF029BF00BF0497FF1F7D
:101190000A97FF1F90B8FF1F6397FF1FFF96FF1F5F
:1011A000D097FF1FDC97FF1F543C0100583C010003
:1011B0005C3C01004C3C01002DE9F043314B9B7835
:1011C00085B04BB1304A314C137831490133072592
:1011D00000201370257008702E4C2F4F2F4E0025C5
:1011E000132329460093102280232046019508F0FE
:1011F000EBFC3B6802933268029B9B1A052120227C
:10120000B3F5FA7FE181228231D9DFF8A480D8F8E2
:101210000000A8422EDD0EF0D1F8DFF898900146CC
:10122000D9F800000EF0D2F90EF0E2FA0AF0AAFCAA
:101230000DF0E6FC1A4ACDE90001102119480FF023
:10124000F9F818480FF05CF91649024620460AF0F2
:10125000C5FE0322204614490AF0C0FE3B680393F2
:101260000022039BC8F80050C9F80020336005B085
:10127000BDE8F08320460B220C490AF0AFFE05B012
:10128000BDE8F0830497FF1F6397FF1FFF96FF1FC2
:10129000D097FF1FDC97FF1F8CBBFF1FC897FF1F56
:1012A000643C01004C97FF1F6C3C0100703C010046
:1012B000E896FF1FC497FF1F2DE9F043634C83B0EE
:1012C00000250F2720462A462946802301950097AE
:1012D000012608F079FC2A462946204680230097FB
:1012E000019608F0F3FC4FF00B0804230222584942
:1012F000E3812046A4F810800AF070FE554B186870
:101300000DF07EFC4FF0020902460B46CDF800902E
:1013100020460AF0D1FE504B1B78002B53D02A46B2
:101320003923472120460196009708F04DFC4A4694
:101330004B234A49A58220466582E381A4F81080A8
:101340000AF04CFE464B474918680EF03FF90DF085
:1013500057FC032502460B46009520460AF0ACFEDA
:10136000A6826682404D2A780F23012612F00102E0
:101370008DE848004FF00E033DD00022392133485C
:1013800008F022FC3C2000233246E0810B2737493D
:101390002E48A382638227820AF020FE2B78A68241
:1013A00003F00403668203F0FF02002B37D10F2302
:1013B0000192009331221A236621244808F004FC8C
:1013C00003B0BDE8F0834A464B232449E38120461D
:1013D000A4F810800AF002FE214B224918680EF092
:1013E000F5F80DF00DFC032502460B46009520464E
:1013F0000AF062FEB6E73921144808F067FC32466D
:101400000B233C26194911482382E6810AF0E6FDA8
:101410002B7803F0040303F0FF02002BC7D00F2248
:1014200001238DE80C0066211A233122074808F0B9
:101430004DFC0F49054868253C230322E5812382A2
:1014400003B0BDE8F0430AF0C9BD00BFDC97FF1F41
:101450007C3C0100F896FF1FD697FF1F803C0100DF
:10146000F096FF1F00007A440895FF1F843C01009E
:10147000883C01002DE9F04FDFF87882984C98F80D
:101480000030B4F90E60B4F91050032B85B046D08B
:1014900000274FF00F09DFF860B201973946CDF809
:1014A000009017233122204608F08EFB9BF800A005
:1014B000BAF1020F67D001234FF0030A39460293B5
:1014C000312217232046CDF80090CDF804A008F073
:1014D00017FF3C230222834923822046A4F80EA052
:1014E0000AF07CFD98F800305A1E012A6CD91A27A0
:1014F000B846B946023B012B17D900200F220190B4
:101500000092C7F1650341463122754808F05CFB43
:10151000F6B2EDB2E681258205B0BDE8F08F4FF05E
:101520000008DFF8D4B14746C1460023DFF8B0A178
:1015300001930F230093504623233122414608F0A4
:1015400043FB9BF800B0BBF1000F6DD001220323D9
:101550000F210091029241460193312223235046EC
:1015600008F0CEFE03373C23504604225E49AAF819
:101570000E70AAF810300AF031FD09F123070FFAB6
:1015800087F8BFB2B9E70123029303230193312205
:10159000172339462046CDF8009008F05DFF4FF044
:1015A00003003C235246E0814E4923822046A78215
:1015B00067820AF013FD4FF00103A382638298F85B
:1015C00000305A1E012A92D8454FDFF82CA1002383
:1015D0004FF00F09019338461623CDF800903122C1
:1015E0001A2108F0F1FA9BF80030012B3ED0042BB1
:1015F0003CD0012203230292019331221623CDF81D
:1016000000901A21384608F07BFE9AF80030042B2F
:101610004FF01C0251D03B23FA81384602223B8214
:1016200032490AF0DBFC42E00F2203230092012240
:1016300041460292019331222323504608F00CFFC9
:1016400003373C23AAF8103004222749AAF80E7069
:101650005046AAF814B0AAF812B00AF0BFFC4FF036
:101660000103AAF81430AAF8123086E71C4F0121B2
:1016700003220F2302910192009331221623384650
:101680001A2108F0E9FE9BF800200023042AA38217
:1016900063824FF01C0219D03B23FA8138460222A4
:1016A0003B8212490AF09AFC0123A382638233270A
:1016B00098F80030B946B8461CE73C23FA81384612
:1016C00002223B820A490AF089FCF0E73C23FA81B6
:1016D000384602223B8206490AF080FCE4E700BF5C
:1016E000DC97FF1F8C3C0100983C0100943C0100FA
:1016F000903C0100FC96FF1FFF96FF1F2DE9F04173
:10170000B14AB24F1378B24E84B0002B40F0AC8097
:101710003B78B04DB04C327894F80080AC49002A48
:1017200000F08180B8F1020F00F0C6802A78002A0C
:1017300040F02D814A78002A00F0C881B278002A52
:1017400000F0C8814FF002082278012A00F0A18140
:101750005D2B00F0F981002084F80080FFF78AFEFD
:101760002E789E4C012E00F0F680012603221123D4
:10177000204602960192009314220C23002108F0C7
:10178000BFFD32462023022620469549E68123826A
:101790000AF024FC2B78914803220126052B4FF0F8
:1017A00011030192009302964FF00C034FF01402C4
:1017B0004FF0100100F0BC8008F0A2FD324620235B
:1017C000122688498548E68123820AF007FC2B7897
:1017D0000A2B00F093801121032201238DE80E00D3
:1017E0007E4816231422202108F08AFD222520237A
:1017F00002227D497948E58123820AF0EFFB3B789C
:10180000412120225D2BE181228200F0278177494E
:101810007248052204B0BDE8F0410AF0DFBB0120A8
:1018200005F050FB3B787278002A4BD02278022AD0
:1018300000F028812A78002A80D05D2B40F04D816D
:101840006B4803686A49B32B9CBF9B180B60B42B91
:1018500001D9B4230360B378002B40F043810168C1
:10186000644808F071F876E700213B78DFF894E1EE
:10187000584D5F48584C117001224FF05A088EF8AD
:1018800000205D2B4FF00202B1702970C0F800807B
:10189000227000F0B980692B7FF43DAF564A13786F
:1018A000012143F030030020137005F025FA0120D8
:1018B0000BF0B6FA3B782EE74A78002A40F0E28037
:1018C0004FF00108B278002A3FF442AF2278022A92
:1018D0007FF43BAF692B00F03981484948480A78CA
:1018E000002601325D2B0A70067000F01A81227802
:1018F000012A00F05B814FF007082CE70125112237
:1019000003238DE82C00202116231422334808F0ED
:10191000A3FD202600232220E081022232492F4805
:101920002682A38263820AF059FBA582658266E75C
:1019300008F092FD002312204FF0200EE081324685
:1019400028492648A4F810E0A38263820AF046FBE7
:10195000A68266823BE70322112320460192009370
:1019600014220C230021029608F076FD00230221A8
:101970004FF0200EE181204632461949A4F810E0CC
:10198000A38263820AF02AFBA682668202E75D2BAD
:101990007FF445AF1648D0F800E0BEF1000F00F02C
:1019A000A380C2EB0E01C82996F801E088BF002190
:1019B00001600749BEF1000F7FF443AF8A78002A27
:1019C0003FF44DAFC0E600BFFE96FF1FEC96FF1F31
:1019D0000497FF1F0097FF1FFF96FF1FDC97FF1F55
:1019E000A03C0100A43C0100903C0100B43C01007B
:1019F0008CB8FF1FA094FF1F0895FF1F6397FF1F60
:101A0000D097FF1FFC96FF1F40F6C4134FF4FA72E5
:101A10000521754807F05CFF744A754B7248042134
:101A200011601A6822F010021A601A6842F020024F
:101A30001A601A6822F004021A601A6842F008025A
:101A40001A60052140F6C4134FF4FA7207F040FF04
:101A50004146654807F078FF3B781CE7654B664ACE
:101A60001B6866485A3B1BB20A210EF0E3FC634830
:101A70000EF046FD61490246614804B0BDE8F04100
:101A80000AF0ACBAB278002A7FF424AF4FF0010814
:101A90005EE62A780A2A3FF65BAE01A151F822F0F1
:101AA0001D1B0000131B0000511700005117000000
:101AB00051170000091B00005117000051170000CA
:101AC0005117000051170000FF1A00008A78002A01
:101AD0007FF438AE4FF002083AE6002005F0F2F944
:101AE0003B78EFE65D232FE64A78002A7FF4A2AE2A
:101AF0008A78002A3FF4B3AEE8E64FF007080022E8
:101B00002A7025E64FF007080A222A7020E64FF0D7
:101B1000070805222A701BE64FF0070801222A70E9
:101B200016E63249324A207804260E60116821F008
:101B3000040111601168012821F00801116015D01D
:101B40004FF007082B488AE62A4888E62D4A137882
:101B500003F0DF036FF3041301210020137005F07D
:101B6000CBF801200BF05CF93B78B6E62A780A2A1C
:101B700018D801A151F822F0191B00000F1B00001A
:101B8000A51B0000A51B0000A51B0000051B0000F5
:101B9000A51B0000A51B0000A51B0000A51B000045
:101BA000FB1A000013484FF0070858E62A780A2A63
:101BB0003FF6A1AE01A151F822F000BF191B0000B1
:101BC0000F1B0000F7180000F7180000F7180000BE
:101BD000051B0000F7180000F7180000F7180000B8
:101BE000F7180000FB1A0000A094FF1F5480034068
:101BF000448003408CB8FF1FA83C01004C97FF1F96
:101C0000DC97FF1F0895FF1F1149124A38B50B7862
:101C100043B1114D114C1248002393700B702B707F
:101C200023700360D3780B4C6BB10E4B42221A70B9
:101C300005F012F90C4A0848137801252B440021BD
:101C400013700570E1700020BDE83840FFF712BC4A
:101C5000FE96FF1F0497FF1FFD96FF1F2697FF1F8D
:101C600090BAFF1FEC96FF1F6397FF1FF0B56A4BFA
:101C70006A4C1A78267883B04ABB694D2B78684A3B
:101C80003BB12378032B34D0042B00F08D80022B42
:101C900045D06B7843B12378032B00F0AD80042B43
:101CA0004BD0022B00F08E80AB782BB1032E3FD0AF
:101CB000042E2FD0022E60D000202670FFF7DAFB12
:101CC00005F0B4FC2378032B60D003B0F0BD0022F4
:101CD000534D544F1A704FF0010E02231146FF204E
:101CE000AA7087F800E0237005F006F804F0B0FE53
:101CF000C4E74D4B1968002939D052780139196071
:101D0000002AD1D01A68002A79D0AB78002B34D1C0
:101D10000226D1E7454B00221A700326CCE7424B3E
:101D200051780120186000294DD19378002BF4D010
:101D30003E4B01221A700426BEE73B4B1B68002B6A
:101D400067D13B4B19783A4A01F00F030C2B02D8AC
:101D50000131C9B211700023102236480AF064F92B
:101D600034480AF051F9AB78002BA5D09EE75178A2
:101D7000002943D19378002BCAD02F4A2B491378DE
:101D80000020013313700870072695E7264B2B4877
:101D90001968890101232431009309B204231E220A
:101DA00008F070FA03B0F0BD1F4B1B688BB9204BD5
:101DB0001A78110701D0013A1A706A78002A3FF4A4
:101DC00073AFBFE7184BAA7800211960002AAFD182
:101DD000A3E7174B1A7812F0F00F01D0103A1A70DF
:101DE0006A78002A3FF460AF1978114BBF29B2D846
:101DF0001031C9B21970AEE70B4B83E702260C4ACB
:101E0000127802F00F020C2A3FF67FAF01221A600F
:101E10004AE7074BE8E700BFFE96FF1FFF96FF1F4C
:101E20000497FF1FFC96FF1F8CB8FF1FD097FF1F62
:101E30000495FF1F108AFF1F6397FF1FDC97FF1F8A
:101E4000F0B5002083B0FFF715FB464B1A781AB1A6
:101E500045490A68002A79D15A78444E3AB1424835
:101E600032880168013A8A4284BF013101609B785F
:101E70004BB13F4A3F4C13783F49013307250020BF
:101E80001370257008703D4C384D002111230191CD
:101E9000009310228023204607F096FE3388052108
:101EA0002022E1812282002B53D02F4E344903227D
:101EB00020460AF093F83368324A33481B0103F195
:101EC0000807D91D03F1060E35F8111035F8177003
:101ED00035F81E308DE882000A210EF0ABFA2A4850
:101EE0000EF00EFB2849024620460AF077F82749F3
:101EF000022220460AF072F833681B0103F10A023D
:101F0000093335F8120035F8133003EB00200DF0DB
:101F100055FA4FF076510DF0A5FA0CF071FE1C4AFF
:101F2000CDE900010A2118480EF084FA16480EF097
:101F3000E7FA1549024620460AF050F815492046AE
:101F4000012203B0BDE8F0400AF048B8013A0A6047
:101F500082E711492046102203B0BDE8F0400AF0A4
:101F60003DB800BF0497FF1F8CB8FF1F90B8FF1F3C
:101F70006397FF1FFF96FF1FD097FF1FDC97FF1F80
:101F8000D03C0100D43C01004C97FF1FE43C010011
:101F9000E83C01005C4E0100BC3C010030B5002073
:101FA00083B0FFF767FA4E48037893B14D4C23781E
:101FB000002B5ED0013B13F0FF034B4A5AD0D15C9B
:101FC00031B9013B13F0FF0354D0D15C0029F8D0A4
:101FD00023604378A3B1434C23780B2B0CD80133F7
:101FE000DBB20C2B404A05D0D15C41B90133DBB2E6
:101FF0000C2BF9D1127B01E03B4AD25C02B1236089
:1020000083784BB1394A3A4C13783A490133072562
:102010000020137025700870374C384D00211123B3
:102020000191009310228023204607F0CDFD2B78EC
:1020300005212022E181228263B92D4A11780129EC
:102040002F4908BF13700F222B4803B0BDE8304062
:1020500009F0C4BF234B244A1B68D25C7AB10B2B16
:102060000DD8DFE803F0111F2225282B2E3134373D
:102070003A0E1D4A1378002BABD00023A8E703B01B
:1020800030BD0A221F49DFE70A221F491A4809F01A
:10209000A5FF297818480A22002309F0C5FF062267
:1020A0001A49D1E709221A49CEE70B221949CBE791
:1020B00010221949C8E710221849C5E7102218490B
:1020C000C2E70E221749BFE714221749BCE71022C6
:1020D0001649B9E714221649B6E710221549B3E7A5
:1020E0000497FF1F8CB8FF1FA494FF1F6397FF1F67
:1020F000FF96FF1FD097FF1FDC97FF1F3C97FF1F26
:10210000F03C0100D03D0100003D01000C3D01000C
:10211000143D0100203D01002C3D0100403D010027
:10212000543D0100683D0100783D0100903D0100F3
:10213000A43D0100BC3D01002DE9F0414D4F82B0AE
:102140000020FFF797F93A78131F022B4A4B50D91A
:102150001A7804213970002A7AD15A78002A57D186
:102160009B784BB1454A464C1378464901330725C5
:102170000020137025700870002111234248DFF8F9
:10218000288100930191802310220646052407F040
:102190001BFD98F8005007E00834A4B209F01EFFB8
:1021A0006D00452CEDB20DD0202315F0800FF48189
:1021B00033824FF0010235493348EDD101223449D1
:1021C0003148E9E7022233492F4809F007FF3B78FD
:1021D000052B35D0062B2BD0042B21D02E480EF00A
:1021E0008FF92D490246284802B0BDE8F04109F0B8
:1021F000F5BE19780029B0D0052A31D0062A27D19A
:102200005A7804213970002AAAD006223A70A7E72A
:102210003A78052A21D0062A28D0042AA0D1F4E74A
:1022200098F800301D4A1C480A210EF003F9D5E742
:1022300098F800301A4A18480A210EF0FBF8CDE74A
:1022400098F90030174A14480A210EF0F3F8C5E750
:102250005A7805213970002A82D004223A707FE72B
:102260005A7806213970002A3FF47AAF05223A7075
:1022700076E700BF4298FF1F0497FF1F6397FF1F79
:10228000FF96FF1FD097FF1FDC97FF1FA03C0100A8
:10229000CC4E0100E43C01004C97FF1FDC3D0100E7
:1022A000EC3D0100E43D01009A94FF1F70B5964992
:1022B000964A0B7882B0002B6FD1D378944E934C12
:1022C000002B77D1934C0020FFF7D4F80025102382
:1022D00020462946009312227823019507F074FCCA
:1022E0001C230F2223828C49E581204609F076FECB
:1022F000204609F089FE3368E5812A222282002BDC
:1023000072D1864B1B78303B442B6BD8DFE813F03F
:102310009B00AC006A006A006A006A006A006A00FA
:102320006A006A006A006A006A006A006A006A005D
:102330006A00B800C4006A006A006A006A006A00A5
:102340006A006A006A006A006A006A006A006A003D
:10235000D00061006A006A006A006A006A006A00D0
:102360006A006A006A006A006A006A006A006A001D
:10237000DC0022016A006A0041016A006A006A000A
:102380006A006A006A006A006A006A006A006A00FD
:102390006A006A006A006A007D00614C5F485C4E1A
:1023A0000023237093700B7003703360D378574C05
:1023B000002B87D05B4B40221A7004F04DFD5A4A27
:1023C0005748137801252B44002113700570E170E4
:1023D00078E70F23002100930191802322224D48AA
:1023E00007F0F2FB02B070BD0F2329460093204690
:1023F00001958023222207F0E7FB4C4920460D225D
:1024000002B0BDE8704009F0E9BD00240F23214669
:102410000093222280233F480194454D07F0D4FBCE
:102420000A2244493B4809F0D9FD2B78002BD9D02A
:1024300001224149374809F0D1FD01342B78E4B23B
:10244000A342F5D8CEE700210F2301910093222269
:102450008023304807F0B8FB384907222D4802B0E6
:10246000BDE8704009F0BABD00210F23019100932F
:1024700022228023274807F0A7FB0A223049EDE7F4
:1024800000210F230191009322228023214807F08D
:102490009BFB0B222B49E1E700210F2301910093C5
:1024A000222280231B4807F08FFB0E222649D5E706
:1024B00000210F230191009322228023154807F069
:1024C00083FB07222149C9E700240F2321460093FB
:1024D000222280230F480194154D07F075FB0C2232
:1024E0001B490C4809F07AFD2B78002B3FF47AAF9A
:1024F00001221149074809F071FD01342B78E4B23B
:10250000A342F5D86EE700BFFE96FF1F0497FF1F9A
:1025100090BAFF1FDC97FF1FF43D01002697FF1FB5
:10252000FD96FF1FEC96FF1F6397FF1F043E0100FF
:10253000CD97FF1F783E01005C3E0100143E010074
:102540001C3E0100283E0100343E0100443E0100D3
:102550004C3E010000240F232146009322228023B9
:102560001B4801941B4D07F02FFB0B221A491848FA
:1025700009F034FD2B78002B3FF434AF01221749CA
:10258000134809F02BFD01342B78E4B2A342F5D8AF
:1025900028E700240F2321460093222280230C48A1
:1025A00001940C4D07F010FB0B220D49084809F06F
:1025B00015FD2B78002B3FF415AF01220749044885
:1025C00009F00CFD01342B78E4B2A342F5D809E7F9
:1025D000DC97FF1FCD97FF1F603E01005C3E0100AE
:1025E0006C3E010030B51E4B9A7883B042B11D4954
:1025F0001D4C0A780725013200200A70257098705A
:102600001A4C0025212329461022204601950093CB
:10261000802307F0D9FA2846FEF72CFF0525202352
:102620002382E581172009F06FFF04F057FA0CF0C0
:10263000E7FA0F4ACDE9000116210E480DF0FAFE27
:102640000C480DF05DFF0B490246204609F0C6FC20
:1026500009492A46204603B0BDE8304009F0BEBC17
:102660000497FF1F6397FF1FFF96FF1FDC97FF1F55
:10267000843E01004C97FF1F8C3E01002DE9F04F76
:10268000AA4B1A7885B0002A40F02E81DFF8E4A228
:10269000A74CA84DA84FDFF8E0B223789BF8006064
:1026A0002BB3731E052B22D8DFE813F0ED013F009A
:1026B000CC010600B8018901DFF8C082DFF87C9206
:1026C00098F9002019F80230013BDBB22F2B98BF9C
:1026D000392309F8023032B999F80030974A312B82
:1026E00084BF3023137095480DF0A2F828606378FA
:1026F00073B9A37863B39BF80030013B052B27D84F
:10270000DFE813F0E001D501BE016D019A01E70198
:102710009BF80030013B052BEBD8DFE813F0D1012B
:10272000C601E2016301BB0155013B78DFF84C8231
:1027300083496278013B88F8003001230B707C4BA1
:10274000002A40F0B2819B78002B40F0B081032634
:102750002B688BF80060092B9CBF0A232B6000209C
:10276000FEF788FE9BF80030764E01210322062BEF
:102770004FF00F0302910192009330464FF0160381
:102780004FF031024FF0330100F0FA8007F0B8FD4E
:102790009AF80030002B00F09D8037203B23F08119
:1027A000022269493382304609F018FC286805F096
:1027B0008DFE9AF8003000212A22F1813282002B0E
:1027C0007DD106F0BDFA614A034616215B480DF043
:1027D00031FE5A480DF094FE58490246594809F016
:1027E000FDFB584809F010FC00241C230622584920
:1027F00033825448F48109F0F1FB2B68554A4F4865
:10280000B57B16210DF016FE3B78002B3CD0DFF88F
:102810006C81DFF82891DFF828A10EE019F8041088
:10282000484808F091F801343B780835E4B2EDB23D
:102830001C22A342F581328226D998F900309C42AD
:10284000ECD19BF80030042B26D0032BE6D10022DC
:10285000F08919F804C0B6F810E08AF801200121C7
:1028600013468AF802208AF800108AF804000A2227
:10287000214639488AF803C08AF805E009F0D4FBFC
:10288000354809F0C1FBC9E734492E48032205B099
:10289000BDE8F04F09F0A2BB01238AF800308AF8A6
:1028A0000230002319F80410F2898AF80130338AC3
:1028B0008AF803108AF804208AF80530B0E706F099
:1028C0003FFA274B274AB3FBF0F316211B480DF0C4
:1028D000B1FD7EE736203C23F0810222224933827B
:1028E000304609F07BFB61E70026124D1E7004F0B4
:1028F0002FFA0A231D49104F2B601846184B1C4A0B
:102900000B600723DFF86CA0094CDFF86CB03B705C
:102910000123137002238BF800308AF80060A67040
:1029200005F0D4FD06F02EFAB7E600BFFE96FF1FB5
:102930000497FF1F8CB8FF1F9C94FF1F4C97FF1F2D
:10294000D097FF1FDC97FF1FA03E0100943E0100BF
:10295000B43E0100BC3E0100108AFF1FC43E0100CE
:1029600040420F00A43E0100B03E010098BAFF1F94
:10297000FC96FF1F9B94FF1FFF96FF1F4398FF1FAE
:1029800007F06AFD9AF800200023B382738262B9CF
:1029900036203C23F081022261493382304609F01F
:1029A0001DFB0123B382738200E737203B23F081B4
:1029B00002225C493382304609F010FBF1E763786C
:1029C000594A002B00F09680DFF87481574AA378AB
:1029D000002188F8001001211170002B78D12B689C
:1029E0000326B6E6DFF85881DFF8449198F9002015
:1029F00019F802300133DBB2392B88BF302309F8D4
:102A0000023032B999F80030494A312B84BF312362
:102A1000137047480CF00CFF28606AE62B68454AA3
:102A20000A2B01D9013B136063783F4A002B31D157
:102A30009378002B3FF48CAE2B683C4A0021117038
:102A4000012686E6DFF8F88098F80030013B5BB29B
:102A5000002B88F800305DDB62783349002A45D0CE
:102A60003A7801335BB2013A934288F8003003DBD5
:102A70002E4B00221A700226A378002B3FF468AE7A
:102A80002B68042665E66378274ACBB99378CBB9DF
:102A900002265DE6284A2B6826499342A27834D95B
:102AA000002ACAD18BF8006059E6A37853B306F028
:102AB00075F922492B680A7801320A70072648E620
:102AC000A378E3B1194A2B6801211170052640E66D
:102AD00003269AF800202B6882F001028AF8002071
:102AE00037E6DFF85C8098F90030B9E78B78002B87
:102AF000C6D12DE693780126002BEAD128E62B6873
:102B0000062626E62B68012623E601330B60002A01
:102B100093D11EE6054A0021117006269CE700BFEE
:102B2000B03E0100A03E01000497FF1FD097FF1F99
:102B30004C97FF1F8CB8FF1F3F420F006397FF1F8A
:102B40004398FF1F2DE9F04F00F5806199B00646CC
:102B5000034602E0994200F0F7809A1B13F8010B3C
:102B600092B20028F6D117467A4B1B78002B66D11B
:102B7000794B07931B78002B57D1DFF8F0B1774DD5
:102B8000079B5B7833B12B68744A01333BF8131011
:102B900001B11360079B9B7833B1714A7149137877
:102BA0000720013313700870DFF8BC910024212343
:102BB00001942146009310228023484607F004F830
:102BC0002B68A9F80E405A1C3BF813403BF81280C2
:102BD000B8F1000F08BFB8461C23A045A9F8103073
:102BE00007D9315D60480134A4B207F0ADFEA045BD
:102BF000F7D85D4809F008FA2B685C495A1C3BF885
:102C000012407CB1023331F81330002B18BF1F463D
:102C1000A74207D9315D54480134A4B207F094FEAD
:102C2000A742F7D819B0BDE8F08F4C4D2B68002BA8
:102C300000F08C80013BDFF834B12B60A0E700246A
:102C4000454B4849DFF82CE1079301222046022535
:102C50000D708EF800209C70FEF70CFC09A9039102
:102C60000DF1260102910DF12A0101910AA90091AD
:102C7000234622463E493C48DFF8F0B007F0FAFF11
:102C8000BDF826A005940AEB4A0AA04625461FFA7D
:102C90008AFA735D202B08BF0135BDF81430069306
:102CA00008BFADB22BF813504FF00009AF420BD361
:102CB000705D20282C4603D110E0335D202B0DD011
:102CC0000134A4B2A742F8D2069A244D013200235F
:102CD0002BF812301F4A2B60137051E7A742F3D92B
:102CE000631B312B1DDD0BA909AA03920DF12602EE
:102CF00002920DF12A02002301920AAA00921A48B8
:102D00001A4607F0B7FFBDF8263009EB030252441C
:102D1000732A15DC5344994401341FFA89F9A5B28A
:102D2000C4E7A542DFD20BA90A462B4600E0F05CBF
:102D3000107001339BB2A34202F8018FF7D1D3E7A1
:102D4000059B01330593A4E701270DE7DFF81CB0CD
:102D500016E700BFFE96FF1F0497FF1F8CB8FF1FEA
:102D60006397FF1FFF96FF1FDC97FF1F90B8FF1FA1
:102D7000C83E0100FC96FF1F2DE9F0416B4C237803
:102D800084B0002B38D06A4B1B78032B2DD3042B37
:102D900035D9052B29D1674D00270F261623284644
:102DA0008DE8C00031221A2106F00EFF6378002B57
:102DB0004ED04FF0010803230096019331221623D1
:102DC0001A212846CDF8088007F046FB1C263B2335
:102DD00002225949AF8228466F82EE812B8209F088
:102DE000FDF8A5F81480A5F81280524808F0B6FC4A
:102DF000637883F00103637004B0BDE8F0814D4D4A
:102E000056D0637821796279E9812A82474D002B77
:102E100033D0AB78002B35D000200C2301900093E9
:102E20000A3A0823434806F0CFFE444B1B781C2B7C
:102E3000DBD1434A637811688901C9B283B30123A6
:102E40000093243104231E223A4807F01BFACCE7F2
:102E50000122032300960292019328461623312271
:102E60001A2107F04DFA1C263B232846022232493C
:102E7000EE812B8209F0B2F8B7E7E9782D4807F028
:102E800063FDD2E701200C23019000930A3A082346
:102E9000284806F01BFFE978264807F055FDC4E7EF
:102EA0000093243104231E22224807F0EBF99CE70B
:102EB00000270F26162328468DE8C00031221A214C
:102EC00006F082FE6378E3B14FF001080323009619
:102ED0000193312216231A212846CDF8088007F0E5
:102EE000BBFA1C263B2302221649AF8228466F827A
:102EF000EE812B8209F072F8A5F81480A5F81280F3
:102F00007FE70122032302920193284600961623AD
:102F100031221A2107F0F4F91C203B23E881022218
:102F200008492B82284609F059F86AE7D097FF1F15
:102F3000FF96FF1FDC97FF1F943C0100EC96FF1FDC
:102F40008CB8FF1F903C0100F8B5104D044628686E
:102F50000F4606F057FB2146286806F0F5FB286867
:102F60000022BE2106F0C0FB7C1E07F1080628687F
:102F700006F0DAFB04F8010FB442F8D13846092113
:102F800006F086FCB0FA80F04009F8BD4897FF1FB4
:102F90002DE9F047CA4E8EB00020334606F10B01F2
:102FA00003F8010B99424FF00002F9D1DFF81883C2
:102FB000C44D88F80020142009F02CFC052104469B
:102FC00006F004FB20462C60DFF8009306F0CEFBF1
:102FD0000127C3E0777001249DF8063033B99DF8CE
:102FE00005301BB99DF80030282B01D00134B77093
:102FF00002A96846FFF7A8FF002800F0C0809DF8EE
:103000000D30FF2B9DF80E3018BFF77003F1FF3223
:1030100018BF01340F2A0AD89DF80820502A00F062
:103020004381FF2A00F059811344180701D001346D
:1030300037719DF80F302868102B1CBF0134777151
:1030400006F0E0FA6946286806F07EFB00224E2171
:10305000286806F049FB9DF80A102868C943C9B2E0
:10306000002206F041FB9DF80B102868C943C9B245
:10307000002206F039FB3F210022286806F034FBCD
:10308000286806F0BFFA05A96846FFF75DFF00282B
:103090007FD09DF80A309DF81620DB43DBB29A42C0
:1030A00000F089800134B7719DF818309DF819201F
:1030B0003F2B9DF80D301CBFF77101349A426DD043
:1030C00001343772286806F09DFA6946286806F0D0
:1030D0003BFB00224E21286806F006FB00229DF8EB
:1030E0000A10286806F000FB00229DF80B102868E3
:1030F00006F0FAFA7F210022286806F0F5FA28681F
:1031000006F080FA08A96846FFF71EFF00283BD0AA
:103110009DF824309DF825207F2B9DF819301CBF89
:10312000777201349A429DF826207CD00134B77220
:103130009DF82030502B48D0FF2B00F081800C2AC6
:1031400000F0C6801421286809F066FB002388F887
:103150000040C9F80030002C40F09A8001226946F6
:10316000286806F011FB002800F09B8008216846C3
:1031700006F08EFB00287FF42DAF04462CE702A951
:103180006846FFF7E1FE3AE708A96846FFF7DCFE6C
:10319000BEE705A96846FFF7D7FE7AE79DF81A2033
:1031A0009DF80E309A428BD19DF81B209DF80F3070
:1031B0009A4285D186E79DF80B309DF81720DB43B6
:1031C000DBB29A427FF46EAF6EE79DF82130052B9B
:1031D000B8D1102AB6D84FF0050A286806F012FABE
:1031E0006946286806F0B0FA44210022286806F0F3
:1031F0007BFA40F2EE2009F013FE0BA96846FFF7B8
:10320000A3FE30B39DF82C30502B2AD0FF2B51D089
:103210009DF832200C2A2CD10C331A072DD1BAF18B
:10322000010ADAD18EE79DF81A3093427FF47EAF1F
:103230009DF827109DF81B3099427FF477AF77E710
:103240009DF82130072B7FF47DAF102A3FF67AAF2F
:10325000C1E70BA96846FFF777FE9DF82C30502B8D
:10326000D4D19DF82D20052AD9D09DF832200C2AE2
:1032700003D013441B073FF465AF14212868F7728D
:10328000013409F0C9FA002388F80040C9F8003079
:10329000012269462868377006F076FA00287FF424
:1032A00065AF0EB0BDE8F0879DF8091005297FF4E1
:1032B000BBAEBEE69DF82D20072AD6D1AFE700BFF2
:1032C000A494FF1F4897FF1F3C97FF1F8CB8FF1F58
:1032D0000C3319073FF47FAF34E79DF80910072935
:1032E0007FF4A2AEA5E600BF2DE9F0433A4B3B497F
:1032F0003B4E3C4C3C4D0027202287B01A82DF8198
:1033000018460C2208F06AFE1420376009F082FA91
:103310000521074606F05AF93846276006F026FAD6
:103320000DF10C08012201A9206806F02DFA80B1E8
:10333000414601A8FFF708FE306801AB05EB4012DB
:1033400013F8011B22F8021F4345F9D10130306008
:10335000E8E73368072BEBD89BB307460DF10C0861
:10336000206806F04FF93AB24FEA021901AB05EBBB
:10337000421232F8021F03F8011B4345F9D101A99B
:10338000206806F0E1F900224421206806F0ACF93B
:103390004FF47A7009F044FD414601A8FFF7D4FDCF
:1033A000013733689DF80C009DF80D2009F10901E3
:1033B000FFB209F10A099F4225F8110025F81920EA
:1033C000CED32B80206800231421336009F024FA27
:1033D00007B0BDE8F08300BFDC97FF1FCC3E0100C3
:1033E0008CB8FF1F4897FF1F90B8FF1F014B0122A9
:1033F0001A7070476497FF1F30B4036842681978E9
:10340000847C1578037A427A19402A402CB3037CD5
:1034100000293ED0304951F83340012384F88030F0
:10342000447C002A47D051F8341081F88030837AE8
:1034300003F0030343F004030AB143F008039A10B6
:10344000013B82720D2B13D8DFE803F01E0F190F1A
:1034500012141E1E14120F190F1E837A03F0030399
:103460000029E9D043F00403E6E7C368013BC360E9
:1034700030BC7047C368023BC36030BC7047C36850
:103480000233C36030BC7047C3680133C36030BCD3
:103490007047114951F83340012384F80031447CCE
:1034A0008AB151F8342082F88030837A03F0030324
:1034B00043F00803C3E751F8341081F80031837AF0
:1034C00003F00303B6E751F8342082F80031837A21
:1034D00003F00303B3E700BFF865010008B5024B32
:1034E000186CFFF789FF08BDECBAFF1F08B5024B47
:1034F000D86BFFF781FF08BDECBAFF1F034A0449F0
:103500001368012003441360087070478CB8FF1FD4
:103510000997FF1F30B4204A204B14781B78204AAB
:10352000204912781B1B0833DBB2CC5CB2B1032AF2
:1035300012D1302C8CBF30223122CA541A4A0023B7
:1035400002F1080012F8011F5B00C90748BF0133F0
:103550008242F7D1154A136030BC7047062B0FD05A
:103560000122154628B12F32A242F5DA641BCC5451
:10357000F2E7C2F139029442EEDC2C44CC54EBE782
:103580000B4A12780A2AEBD90A4DA5FB0252D5083C
:103590002A460028EDD0E6E79C94FF1F4398FF1FC2
:1035A0004298FF1F4C97FF1F4B97FF1F8CB8FF1FC0
:1035B0000097FF1FCDCCCCCC324B1B78012B10B524
:1035C00028D016D3032B13D12F4C2268002854D1B6
:1035D000013A2E49D2B22260A1F1080002F00103A3
:1035E000303301F8013D88424FEA5202F6D110BD56
:1035F00010BD40BB2648244C0CF01AF9254B206026
:103600001B68984284BF23601846234B1978814277
:1036100035D910BD214A137878B913B1013BDBB21B
:1036200013701F4A184952F823300B601D4A18487E
:103630000A21BDE810400CF0FDBE082BF1D8013383
:10364000DBB21370EDE712480F4C0CF0F1F8114BA0
:10365000114A1B6811782060984284BF2360184685
:103660005B1A8342D5D3014421600B460D4A0848BA
:103670000A21BDE810400CF0DDBE0132A9E7411A75
:10368000F2E700BF4298FF1F8CB8FF1F5497FF1F3F
:103690004C97FF1F98BAFF1F0097FF1F9894FF1FBA
:1036A00044410100804401002DE9F041DFF86C81C4
:1036B000454E464F82B04046012504F04FF8404643
:1036C000434904F095F803F061FB2B463C2200953A
:1036D0000221304607F060FD304607F033FF3046E8
:1036E0003C49002407F0D6F92946304607F0CAF9CC
:1036F0004146B582758274763748384E04F0C8FE6C
:103700000221112009F086FB0221142009F082FB1E
:1037100002210D2009F07EFB02210B2009F07AFB2B
:1037200002210A2009F076FB02210C2009F072FB2D
:103730002946092009F06EFB2946092009F056FBAD
:10374000642008F0A3FE264B294620461C7003F097
:10375000D3FA2449244B254A25480C701D70157056
:10376000244B2549254A04703570204602260C70EA
:103770001D711C705C709C701670FDF77BFE204BF9
:1037800020493246092514201D7009F0CDF838462D
:10379000072104F011FD3846082104F055FD384694
:1037A0000E2104F095FD184A184B147038461C7011
:1037B00004F0C4FC164A1749174B147037220C70DA
:1037C0001A7002B0BDE8F081DC97FF1FDC88FF1F94
:1037D000801A0600704401002897FF1F6397FF1F9F
:1037E0000895FF1FEC96FF1FFE96FF1FFD96FF1F1B
:1037F000FC96FF1F0497FF1FD097FF1FFF96FF1F28
:103800009894FF1FED3300009994FF1F4497FF1F0A
:10381000F496FF1F0197FF1F0495FF1F0488FF1FE9
:10382000F0B5974C974A236885B0029302991368C4
:10383000CB1AC82B1ED9944D94482B780078116070
:1038400083F0010375282B7000F07881904B1B7872
:1038500053B123688F4A0393039B12689B1AB3F5F5
:10386000FA7F01D9FDF7A8FCFFF786FA2B78002B29
:1038700040F0F1800B2009F0BFFA00285FD1864E9E
:10388000B6F80231B3F5807F59D0844CE37AC3B1E6
:1038900072B6E37AD9071A4606D58148E26801680C
:1038A0001140A1611A4601609B0706D57D4A236934
:1038B00011680B40E3611360E27A570700F18381DE
:1038C00062B62368784AD968914206D0774D784825
:1038D00078491D60DA60186119600021092009F03B
:1038E00085FA22684FF000410723D1625363D36AFF
:1038F000002BFCDA936B00254FF00047B6F802313D
:10390000B3F5807F02D0002D00F01B81012109203A
:1039100009F06CFAE37A61491A466BB1DE0703D508
:10392000654A896911601A469D0700F14781500771
:1039300002D5624B226A1A60614B01221A70614DF6
:10394000B5F80231002B3DD15F4C237D012B7DD991
:1039500072B6E36862B65D4A11689B108B4204D070
:103960002BDA5B490120087013605A4805F022FCED
:10397000584805F02BFB48B9574B1B786BB9574B90
:103980001B780BB9FEF792FC05B0F0BD504B01223D
:103990009A70514B1B78002BF1D04E4805F0F8FA85
:1039A000002840F0C6804B4805F000FB0028E6D018
:1039B0000021084603F0A0F9E1E7D5DD44490120E4
:1039C0004870D1E7354C0021092009F00FFAE37A5D
:1039D000002B40F08F802368334AD968914206D08B
:1039E000324E334833491E60DA60186119603C4931
:1039F0000A78002A00F0BC804FF000400922D8620B
:103A00005A63DA6A002AFCDA00229B6B0A70A5F876
:103A10000221E37A21491A4683B1D80703D5264A01
:103A2000896911601A46990703D52E4BE2691A601D
:103A3000E27A530702D5214B226A1A60224C0121F7
:103A4000092009F0D3F9237D012B81D872B62046D5
:103A5000FFF7D2FC7DE72448244C04F0DFFC206013
:103A6000214804F0CFFC224B00251860294620682D
:103A70000BF096FE002840F0AD80FDF71DFCF9E646
:103A80008CBBFF1F4899FF1F2797FF1FEC96FF1F56
:103A90006297FF1FC897FF1F0C95FF1FDC88FF1F51
:103AA00080E100E084E100E00100023801403F00D5
:103AB0000100027800003F8000E100E008E100E042
:103AC0004497FF1F4498FF1FB094FF1F0C97FF1FE0
:103AD0000497FF1F6897FF1F95BAFF1FFD96FF1FF2
:103AE0009994FF1F04E100E02897FF1FF096FF1F45
:103AF000F896FF1F72B6E37AD9071A4606D53648FC
:103B0000E26801681140A1611A4601609F0706D56D
:103B1000324A236911680B40E3611360E27A560769
:103B200005D52F4A636911680B402362136062B6A2
:103B300051E70021102003F0DFF834E7FEF752FDD3
:103B400084E6022009F06CF92268D7625563D36AD3
:103B5000002BFCDA916B2348C9B2FCF785FE0B20E1
:103B600009F04AF9A0F10105B5FA85F56D09C5E638
:103B70004FF000410822D9625A63DA6A002AFCDA5F
:103B8000B5F802219B6B002A3FF443AF4FF000468B
:103B9000022009F045F90DF107011348FCF7C8FDB3
:103BA00022689DF80730D6625363D36A002BFCDA93
:103BB000B5F80231926B002BEAD12AE70B4BE26990
:103BC0001A60E27AB3E6064A636911680B40236221
:103BD000136075E6256050E780E100E084E100E0D5
:103BE00088E100E00C95FF1F4498FF1F04E100E00E
:103BF00030B441F63A7382B0C45A40F2E7339C4283
:103C000005468DE8060018D041F6387340F2E632DA
:103C1000EB5A234493429DE8030088BFA3F2E733A5
:103C20009BB241F63A7205EBC30383E8030001340B
:103C30000120AC5202B030BC7047002002B030BC52
:103C4000704700BFF0B5654C85B0FFF7E9FD2378FC
:103C5000432B00F091806248624D05F0B3F908B340
:103C60000123EB70604B1A7802BB604B1A7832B1BB
:103C7000227800212B2A19705DD01C2A77D05C4B4A
:103C80001B78002B40D15B4B1B78DBB92378022BD0
:103C900023D0594B1B780BB9FDF7EAF800F01AFC5A
:103CA00005B0F0BDEB78002BDFD0DBE75348544F75
:103CB0000178002201310B260170BA741A70EA7083
:103CC0002670D2E705F02AF90028DFD04B4A137896
:103CD000013313702378022BDBD14A4E33783BBB80
:103CE000EB78002BD5D0052008F09AFE4349464DCD
:103CF0000B7846480133002207270B7001232F70F1
:103D0000027032702370C4E7414807F013FF0028A7
:103D1000B9D0404E3E4807F019FF0BF04BFB31681D
:103D20000BF098FA3C4A3060136801331360AAE73D
:103D3000FDF73AF9D4E702F08BFE384841F63A72C3
:103D400040F2E733825A9A420DD0354A354B126819
:103D50000192019A1B788DF80D30029204AB13E9A1
:103D60000600FFF745FFFEF7E7F9227885E702F046
:103D70006FFE03F05BFC82E70A2009F03DF8051CAA
:103D800006464FF00C0018BF012509F035F8264A09
:103D90001178031C18BF0123A942244916D09D4263
:103DA00015700B7016D01F4B00221A70204B58B1A3
:103DB00018780430C0B2187016B10830C0B218704C
:103DC000002102F099FF46E71878F5E70F789F4247
:103DD000E5D140E7164B0C201870F1E7EC96FF1F79
:103DE0006897FF1F0497FF1F95BAFF1F6497FF1F77
:103DF0006297FF1F94BAFF1FFD96FF1F6397FF1F77
:103E0000B094FF1F0997FF1FFF96FF1FD097FF1F5A
:103E10001496FF1FC497FF1FE896FF1F5099FF1FBE
:103E20008CBBFF1F9A94FF1F4C99FF1FCC97FF1F5D
:103E30000995FF1FF0B587B0444B0293444A0192A5
:103E40004FF0FF3300934022424B4348434C8021C4
:103E500007F020F8424A43493F480AF0BBF94021A5
:103E6000414804F081FA3E4A40493F480AF0B2F91D
:103E70000221102008F0CEFF02210F2008F0CAFF17
:103E80003B4BD3F880109A6F01F5007002F5007378
:103E900005270626002520600120636027744BF665
:103EA00080336674E56020726072013BFDD191F849
:103EB000003292F800222F4D2F492C64D20703EADA
:103EC000000344BF43F00203DBB204221020A372BC
:103ED00008F02AFD012304222849EC630F202375F2
:103EE00008F022FD257D264800230A27FA2640F601
:103EF000B8313222013502960191009203971A4699
:103F00002575112105F06EF9062205211D4805F0E1
:103F10001FFA1D4805F0D8FC1C4B1D481B68059373
:103F20001C4B1D491D4A059E1E6041F6387541F621
:103F30003A74002343530353A1F80031A1F802312E
:103F4000A2F80031A2F8023107B0F0BDA08601004E
:103F5000801A06000488FF1FDC97FF1FB094FF1F24
:103F6000FC87FF1FEDAE00002897FF1F7D83000038
:103F7000F8650100ECBAFF1FDD340000ED340000ED
:103F80006897FF1FC894FF1FA094FF1F8CBBFF1FE3
:103F90005099FF1FC897FF1F0C95FF1F4498FF1FE4
:103FA0002DE9F04FA54DDFF8E4922B7899F8004009
:103FB00083B063B1052C0AD8DFE814F0DB002700DA
:103FC0000F01F6000B0106000020FFF7F5FA6B78F1
:103FD0007BB99B4F3E78AB784BB399F80030052BFB
:103FE00025D8DFE813F05F012300C001F300C20011
:103FF000D10099F80030052BEBD8DFE813F04B0126
:104000000B007F015E01CF00C9006B788B4A002B4B
:1040100000F092818A4B1E78002E40F07981894F02
:10402000AB7800223A70002B00F099810524DFF86C
:10403000608289F80040032E00F05A81824D0020F2
:10404000FDF718FA0021112301910093102280231B
:10405000284605F0B9FD98F80020C2F10802D4B254
:1040600020210523072C2982EB8128D89B46754FF8
:10407000764EDFF818A212E0315D7348013406F085
:1040800063FCE4B25FFA8BF307332022082CEB8148
:104090002A8214D098F800209B46C2F1080297F9B2
:1040A00000301A449442E7D199F80030042B39D0FB
:1040B000032BE1D10021305DFCF7F0FEDCE7644B1F
:1040C0001B78012B48D034D3022B24D1614B1B78B1
:1040D000002B47D1604B614A1B78D05C0BF06AF92A
:1040E0005F490BF073FA0AF08BFD5E4ACDE90001DF
:1040F000102156480CF09EF954480CF001FA53492F
:104100000246514807F06AFF574B584A1B684F4810
:104110000A210CF08FF9564B1B78632B12D003B099
:10412000BDE8F08F0121305DFCF7B8FE9AF8003051
:10413000BEE703224F49444807F050FF4C4B1B7821
:10414000632BECD1484A4C4B10781870002103B017
:10415000BDE8F04F02F0D0BD032248493A4807F0CD
:104160003DFFD8E73C4B464AB6E7DFF824810324FD
:104170005FE76B78314A002B40F08C809378304AAF
:104180001678002B40F08E800124DFF8048150E780
:104190002B4F0120FFF710FA3E781CE7284F002034
:1041A000FFF7B8F93E7816E7264F6A783B7823493F
:1041B000013B5BB2002BB8BF01243B70002A7FD1CA
:1041C0001F4A8B781678002B3FF431AFDFF8C080A0
:1041D0008CE00120FFF79EF9F9E62A4BDFF8B0806A
:1041E0001B78184F092B98F8003094BF03F1FF3368
:1041F000023B3B70124F3E78002E00F09B80032E56
:1042000000F0E880204B1C78023C012C8CBF00247D
:1042100001246B78094A002B74D19378002B3FF46A
:1042200008AF002E00F0A280012E00F0B180032E16
:1042300000F0B78089F8004000E700BF0497FF1F37
:104240004298FF1F4398FF1FDC97FF1F4C97FF1FEB
:10425000E496FF1F2497FF1F9894FF1F3841010029
:1042600000002041904401008CB8FF1F80440100F1
:10427000EC96FF1F884401009A94FF1F8C440100B4
:104280006C4101000097FF1FFC96FF1FFF96FF1F68
:104290009C94FF1F554FAB7800223A70002B55D0ED
:1042A000534B1E78534A54491378DFF86C8101331D
:1042B0000020137008700824BBE64C4F97F90030BB
:1042C0004E4ADFF854811278092A98F8002003F149
:1042D00001035BB288BF02F1FF323B709342A8BF7B
:1042E0000224AB78002B37D0414B1E780424A0E683
:1042F000434A1078002102F0FFFC9FE63C4FDFF8B4
:1043000018813E78AB780124002B3FF492AE88E709
:10431000032E3FF484AE3B4B1B78023B012B3FF650
:104320007EAEAB78002B7FF481AE89F80030DFF8E9
:10433000E88083E603246CE793782D4A1678002BF7
:104340007FF474AE0224DFF8D08072E6284BDFF8E9
:10435000C8801E7803246CE6254B1E7869E603248A
:10436000DFF8B48065E6DFF8B0805AE72648244DD0
:104370000BF05EFA254B2860196888422CD81D4A3C
:104380001D4913780E7001333E78137007244BE7F4
:10439000184A194913780020013313700870072454
:1043A00048E71B4A002302F1080012F8011F5B00D6
:1043B000C90748BF01338242F7D10E48104A01783D
:1043C0000D4C136000254B1C07210370257089F8E4
:1043D00000108EE734461CE70B4629600D4A0A4858
:1043E0000A210CF027F83E781EE700BF4398FF1F14
:1043F0004298FF1F6397FF1FD097FF1F0097FF1F73
:104400008CB8FF1FFC96FF1F4C97FF1F98BAFF1F29
:104410004B97FF1F804401009C94FF1FF0B51A4B7F
:10442000DFF890E0194C1A4D1A4F206085B00E4607
:1044300000218EF8021029701B68174A0A210225F4
:1044400001A83D700BF0F6FF2368144A14480A21B6
:104450000BF0F0FF01A80CF053F8124B12491B7837
:10446000124A0E70012B107007D0032B04BF104AA4
:104470001370FFF795FD05B0F0BD0D4B1D70FFF7F4
:104480008FFD05B0F0BD00BF98BAFF1F8CB8FF1FAD
:104490004398FF1FFF96FF1FA044010080440100C6
:1044A0004C97FF1F4298FF1F0097FF1F9C94FF1F10
:1044B000E496FF1F0497FF1F70B5044608460D469B
:1044C0000CF01EF823680246294620465B68BDE8CA
:1044D000704018472DE9F04F444C237885B0002BED
:1044E00040F088806378002B00F00681404D2A78E8
:1044F000782A01F24885DFE812F0D9052902460D35
:10450000E204460DD404460D8604460D79045C058C
:10451000C704460D4F05460D9C03F302E602D9027F
:10452000460D460D460D460DCC02460D21040704EE
:104530001404460DBF02460D9F05770549043B0450
:10454000460D9105460DFD04460D1A030D03C605E3
:10455000460D6905460DAC05460DD003460DB9055F
:10456000AD048405460D9302460D5F04460D5604C6
:10457000460DED03460DE00341033403460DFA03F7
:10458000460D2703460D8F0375038203460D4E0328
:10459000460D6803460D460D460D460D460D5B0360
:1045A000B202460D9C02460D460D3505460DF0043F
:1045B00028052E04460DA004460D93041B05000398
:1045C000460DC303460DB603BA04A903460D460DB6
:1045D0004205460D6C040E0586027902460D5F0207
:1045E0006C025102460D4402460D37020497FF1F2C
:1045F000EC96FF1F3F4D2B78782B01F2B584DFE856
:1046000013F05105A201B30C5B04B30C4D04B30CC1
:10461000FF03B30CF203D5044004B30CC804B30C7D
:1046200015036C025F025202B30CB30CB30CB30C53
:104630004502B30C9A0380038D03B30C3802B30C0C
:104640001805F004C203B403B30C0A05B30C7604D6
:10465000B30C930286023F05B30CE204B30C2505AC
:10466000B30C4903B30C32052604FD04B30C0C0251
:10467000B30CD803B30CCF03B30C6603B30C5903CC
:10468000BA02AD02B30C7303B30CA002B30C08035F
:10469000EE02FB02B30CC702B30CE102B30CB30C85
:1046A000B30CB30CB30CD4022B02B30C1502B30C35
:1046B000B30CAE04B30C6904A104A703B30C190432
:1046C000B30C0C0494047902B30C3C03B30C2F0319
:1046D00033042203B30CB30CBB04B30CE50387040F
:1046E000FF01F201B30CD801E501CA01B30CBD0111
:1046F000B30CB001EC96FF1FA378002B7FD0464D82
:104700002B78782B01F23F84DFE813F0D2042301E9
:104710003D0CDC033D0CCE033D0C80033D0C7303CC
:104720005604C1033D0C49043D0C9602ED01E00125
:10473000D3013D0C3D0C3D0C3D0CC6013D0C1B0353
:1047400001030E033D0CB9013D0C990471044303B0
:1047500035033D0C8B043D0CF7033D0C140207029E
:10476000C0043D0C63043D0CA6043D0CCA023D0C84
:10477000B304A7037E043D0C8D013D0C59033D0C91
:1047800050033D0CE7023D0CDA023B022E023D0CC9
:10479000F4023D0C21023D0C89026F027C023D0CAB
:1047A00048023D0C62023D0C3D0C3D0C3D0C3D0CA5
:1047B0005502AC013D0C96013D0C3D0C2F043D0C07
:1047C000EA03220428033D0C9A033D0C8D031504D3
:1047D000FA013D0CBD023D0CB002B403A3023D0C36
:1047E0003D0C3C043D0C66030804800173013D0C44
:1047F000590166014B013D0C3E013D0C3101074E54
:1048000033787BB90023064823706370A37006F0E9
:10481000A5FF05B0BDE8F08FEC96FF1F6397FF1F63
:10482000DC97FF1F884F894D4FF00008212300932C
:10483000102280233846CDF80480414605F0C4F9A3
:104840002B78A7F80E801C223A82782B00F258862B
:10485000DFE813F0860A910A630A730A680A91076F
:10486000870775076B0759074F073D072E071C077A
:104870001207270A1C0A000AED0956064D0A5606B9
:1048800056063A0A580ADA09C509B209D0099F0939
:104890009409430938091C090007F606E406DA06FC
:1048A000C806BE06AC06A2069006860674066A0610
:1048B000580656060906FF05570B4C0BF60A560616
:1048C000D00AC40AB10AA40A770B6A0B0909FE08C8
:1048D000EB08E008CD08C808970892087F0874081C
:1048E000B508AA086108560843083908270856067B
:1048F00056065606560656061D080B08FF07E4071F
:1049000056065606A307EB05D905F50569056005AA
:104910004E0544053205A90597058D057B05C5059E
:10492000B305CF052005170556060505FB04E90468
:10493000DF04C404B20490047E04740462045204CC
:1049400035048E0BE30A092263782A700BB1032326
:104950002B70A3783E4F002B41F005853D4E3378F8
:104960009BE3762263782A700BB174232B70A378B3
:10497000384E002B41F0158333788EE37422637830
:104980002A700BB178232B70A378002B41F046835B
:10499000304E337881E3782263782A700BB1762326
:1049A0002B70A3782A4A2B4E002B41F05783337883
:1049B00073E3702263782A700BB16F232B70A37896
:1049C000244E002B41F02583337866E36E22637812
:1049D0002A700BB100232B70A3781E4E002B41F0E0
:1049E0002683337859E3552263782A700BB17223FA
:1049F0002B70A378002B41F05083164E33784CE394
:104A0000722263782A700BB170232B70A378002B6D
:104A100041F0B2830F4E33783FE3342263782A703B
:104A2000002B41F022830B4E337836E35322637818
:104A30002A700BB158232B70A378002B41F0D5823C
:104A4000044E337829E300BFDC97FF1FEC96FF1F6D
:104A50000497FF1F6397FF1F5A2263782A700BB1D8
:104A600055232B70A378002B41F04284904E33786D
:104A700013E31B2263782A700BB11F232B70A378DA
:104A8000002B41F0F8828A4E337806E312226378D5
:104A90002A700BB119232B70A378002B41F0B08240
:104AA000834E3378F9E2112263782A700BB1172311
:104AB0002B70A378002B41F0D3847D4E3378ECE249
:104AC000192263782A700BB112232B70A378002B64
:104AD00041F04183764E3378DFE20A2263782A7010
:104AE0000BB11A232B70A378714E002B41F0C683B3
:104AF0003378D2E2662263782A700BB164232B707C
:104B0000A378002B41F06684694E3378C5E22022F9
:104B100063782A700BB133232B70A378644E002B7B
:104B200041F0A2833378B8E2262263782A700BB171
:104B300021232B70A3785E4E002B41F0BC8233788A
:104B4000ABE2422263782A700BB146232B70A37824
:104B5000002B41F09982564E33789EE246226378CC
:104B60002A700BB142232B70A378002B41F04885AB
:104B70004F4E337891E2332263782A700BB147238A
:104B80002B70A3784A4E002B41F06083337884E287
:104B9000482263782A700BB14C232B70A378002B2A
:104BA00041F04A82424E337877E2472263782A7096
:104BB0000BB15B232B70A3783D4E002B41F0768226
:104BC00033786AE24A2263782A700BB148232B704B
:104BD000A378374E002B41F0038233785DE23F2209
:104BE00063782A700BB152232B70A378304E002BC0
:104BF00041F0D281337850E24C2263782A700BB1B5
:104C00004A232B70A378002B41F01F82284E337863
:104C100043E2442263782A700BB140232B70A378BF
:104C2000234E002B41F04C83337836E20D2263781B
:104C30002A700BB10B232B70A3781D4E002B41F073
:104C40004483337829E26D2263782A700BB16B2399
:104C50002B70A378002B41F0C384154E33781CE2EF
:104C6000642263782A700BB162232B70A378104EF4
:104C7000002B41F0388233780FE2622263782A7089
:104C80000BB166232B70A378002B41F09E82084E57
:104C9000337802E22E2263782A700BB132232B7014
:104CA000A378002B41F02482014E3378F5E100BF58
:104CB0006397FF1F3C2263782A700BB134232B705B
:104CC000A378914E002B41F0B6823378E5E13A2289
:104CD00063782A700BB13E232B70A378002B41F030
:104CE0007681894E3378D8E1402263782A700BB1FF
:104CF00044232B70A378002B41F06184824E3378DB
:104D0000CBE1102263782A700BB120232B70A3789B
:104D10007D4E002B41F0D4813378BEE11F226378B1
:104D20002A700BB11D232B70A378002B41F0CD818D
:104D3000754E3378B1E1172263782A700BB11123D5
:104D40002B70A378704E002B41F093823378A4E14E
:104D5000602263782A700BB15E232B70A378002B3E
:104D600041F06E83684E337897E1212263782A7090
:104D70000BB124232B70A378644F002B41F0518496
:104D8000614E337889E1282263782A700BB122239F
:104D90002B70A378002B41F00E815B4E33787CE1C1
:104DA000382263782A70002B41F04A82564E3378BD
:104DB00073E1362263782A700BB13A232B70A37803
:104DC000002B41F05E84504E337866E16B226378AD
:104DD0002A700BB168232B70A3784B4E002B41F047
:104DE0005282337859E1072263782A700BB101238C
:104DF0002B70A378444E002B41F0708133784CE146
:104E0000052263782A700BB109232B70A378002B3D
:104E100041F008823C4E33783FE15E2263782A708D
:104E20000BB15C232B70A378374E002B41F0BE8072
:104E3000337832E15C2263782A700BB160232B70E7
:104E4000A378002B41F0AF812F4E337825E1292242
:104E500063782A700BB13F232B70A3782A4E002B66
:104E600041F01F82337818E1612263782A700BB118
:104E70006E232B70A378244E002B41F02B823378C5
:104E80000BE10F2263782A700BB10D232B70A378EE
:104E9000002B41F035831C4E3378FEE0032263780B
:104EA0002A700BB107232B70A378184F002B41F009
:104EB000A982154E3378F0E0012263782A700BB195
:104EC00005232B70A378114E002B41F025820E4E46
:104ED0003378E2E0582263782A700BB153232B70A9
:104EE000A378094E002B41F00C813378D5E02422C1
:104EF00063782A700BB128232B70A378002B41F024
:104F0000C781014E3378C8E06397FF1F0497FF1FE6
:104F1000672263782A700BB173232B70A3789A4EA3
:104F2000002B41F0C8813378B7E05B2263782A70A8
:104F30000BB167232B70A378934E002B41F0B68101
:104F40003378AAE0522263782A700BB161232B7068
:104F5000A3788D4E002B41F0F98033789DE05522E7
:104F600063782A700BB15A232B70A378002B41F081
:104F70007281854E337890E0682263782A700BB195
:104F80006D232B70A378002B41F0A9817E4E3378DE
:104F900083E00B2263782A700BB10F232B70A37868
:104FA000002B41F00981784E337876E00022637857
:104FB0002A700BB110232B70A378734E002B41F095
:104FC000D680337869E02A2263782A700BB12E23C9
:104FD0002B70A3786D4F002B41F0DD816A4E337842
:104FE0005BE01A2263782A700BB129232B70A37817
:104FF000654E002B41F08A8033784EE03E22637884
:105000002A700BB136232B70A378002B41F08C80D3
:105010005D4E337841E0222263782A700BB126235B
:105020002B70A378594F002B41F0B882564E33783D
:1050300033E01D2263782A700BB11B232B70A378F9
:10504000514E002B41F0AA80337826E02C22637861
:105050002A700BB130232B70A378002B41F05B80BA
:10506000494E337819E0302263782A700BB12A2335
:105070002B70A378444E002B41F0B08033780CE0C5
:10508000322263782A700BB12C232B70A3783F4F08
:10509000002B41F0D7823C4E33780133DBB23370C2
:1050A000FFF7AFBB637873222A700BB10A232B7012
:1050B000A378354E002B40F06A873378EDE7002067
:1050C000FCF7D8F90A223249324806F087FF314806
:1050D00006F09AFF0C2230492E4806F07FFF337805
:1050E000012B02D9FCF7E8F83378002B3FF48AABA8
:1050F000013B3370FFF786BBFDF774FA274B1B7833
:10510000072B3378ECD126490133DBB2002074221F
:10511000337008702A70E3E70020FCF7ABF90A222D
:105120001B491C4806F05AFF1A4806F06DFF0D2275
:105130001C49184806F052FF3378D1E70020FCF7ED
:1051400099F909221849134806F048FF3378C7E750
:105150000020FCF78FF9102214490E4806F03EFF9C
:105160000C4806F051FF0E2211490A4806F036FF9E
:105170003378B5E70F48FDF7E5FC084A1378072BAD
:1051800001F077833378ABE76397FF1F0497FF1F26
:1051900078510100DC97FF1FB04D0100FF96FF1F03
:1051A000FC96FF1F845101006C5101003851010031
:1051B0005C510100705401000020FCF75BF91022E3
:1051C000B249B34806F00AFFB14806F01DFF0C22B1
:1051D000B049AF4806F002FF337881E70020FCF7C2
:1051E00049F91022A949AA4806F0F8FEA84806F095
:1051F0000BFFA949A6480F2206F0F0FEA74BA448D2
:105200001B789B074CBFA649A649FFF755F9337891
:1052100066E70020FCF72EF90F22A3499C4806F010
:10522000DDFE33785CE70020FCF724F908229F4973
:10523000974806F0D3FE964806F0E6FE0D229C49FC
:10524000934806F0CBFE33784AE79A4F9A48FDF729
:1052500079FC3B78072B01F0D883337840E70020B6
:10526000FCF708F908229149894806F0B7FE8848FA
:1052700006F0CAFE0C228749854806F0AFFE337857
:105280002EE7FCF73BFA8B4A1378072B01F04A8391
:10529000337825E70020FCF7EDF8082283497C48A5
:1052A00006F09CFE7A4806F0AFFE0B228349784850
:1052B00006F094FE337813E70020FCF7DBF80622B3
:1052C0007F49734806F08AFE714806F09DFE0B2266
:1052D0007C496F4806F082FE337801E77A48FDF793
:1052E00031FC744A1378072B01F0E5823378F7E636
:1052F0000020FCF7BFF806227149654806F06EFEF3
:10530000634806F081FE0C226249614806F066FEA1
:105310003378E5E6FCF7F2F9664A1378072B01F0DB
:1053200036823378DCE60020FCF7A4F806226449D4
:10533000574806F053FE564806F066FE09226349B8
:10534000534806F04BFE3378CAE60020FCF792F88B
:1053500009225F494E4806F041FE4D4806F054FED2
:105360000C224C494A4806F039FE3378B8E6FEF77D
:1053700017FE504A1378073B012B41F2C78233785E
:10538000AEE60020FCF776F809225149404806F0C5
:1053900025FE3F4806F038FE0A224E493C4806F0FA
:1053A0001DFE33789CE60020FCF764F808224A4989
:1053B000374806F013FE337892E60020FCF75AF8DF
:1053C00009224349324806F009FE314806F01CFE26
:1053D0000E2242492E4806F001FE337880E640480E
:1053E000FDF7B0FB334A1378072B01F0A582337821
:1053F00076E60020FCF73EF807223A49244806F0FA
:10540000EDFD33786CE60020FCF734F807223649CE
:105410001F4806F0E3FD1E4806F0F6FD0C22334956
:105420001B4806F0DBFD33785AE63148FDF78AFB6E
:10543000204A1378072B01F0B481337850E600201E
:10544000FCF718F805222B49114806F0C7FD337800
:1054500046E62948FDF776FB164A1378072B01F03C
:10546000AA8133783CE60020FCF704F80C2223499B
:10547000074806F0B3FD064806F0C6FD0C220549B4
:10548000034806F0ABFD33782AE600BF385101002F
:10549000DC97FF1FB04D01004C5101000895FF1F24
:1054A000384E0100344E0100285101000051010026
:1054B00018510100FF96FF1F484D01000C510100DB
:1054C000A4500100B8500100A4440100AC500100F8
:1054D000D0500100DC500100C4500100E850010030
:1054E000CC520100F8500100485001008C500100DE
:1054F000304A01009C500100D0450100FC4E0100E3
:105500003378EDE50020FBF7B5FF0C22AC49AD4840
:1055100006F064FDAB4806F077FD0D22AA49A948C4
:1055200006F05CFD3378DBE5FBF7CCFCA74A13788B
:10553000073B012B41F249813378D1E50020FBF78D
:1055400099FF0C229E499F4806F048FD9D4806F0B1
:105550005BFD0B229E499B4806F040FD3378BFE57A
:10556000FCF7EAFD994A1378073B012B41F2398198
:105570003378B5E50020FBF77DFF0C229049914878
:1055800006F02CFD8F4806F03FFD0D2291498D4815
:1055900006F024FD3378A3E50020FBF76BFF0B2218
:1055A0008D49884806F01AFD337899E50020FBF70D
:1055B00061FF09228949834806F010FD814806F001
:1055C00023FD0E2286497F4806F008FD337887E5E3
:1055D0008448FDF7B7FA7D4A1378072B01F00D8157
:1055E00033787DE50020FBF745FF09227B497548AC
:1055F00006F0F4FC734806F007FD0C227A49714866
:1056000006F0ECFC33786BE5FCF7C8FC6F4A1378C6
:10561000073B012B41F2FB80337861E50020FBF76B
:1056200029FF09226D49674806F0D8FC654806F055
:10563000EBFC0E226D49634806F0D0FC33784FE551
:10564000FCF7FEFB614A1378073B012B41F2E9802E
:10565000337845E50020FBF70DFF09225F495948E3
:1056600006F0BCFC574806F0CFFC112260495548B3
:1056700006F0B4FC337833E55E48FDF763FA534A2D
:105680001378072B01F0D780337829E50020FBF74A
:10569000F1FE082258494B4806F0A0FC494806F0A4
:1056A000B3FC0C225049474806F098FC337817E5C4
:1056B0002278524B002A41F00B805A78002A41F0A0
:1056C00007809B78002B41F00380337808E50020A9
:1056D000FBF7D0FE082248493A4806F07FFC3948DB
:1056E00006F092FC14224649364806F077FC3378DF
:1056F000F6E40020FBF7BEFE07224249314806F0DF
:105700006DFC3378ECE40020FBF7B4FE08223E4940
:105710002C4806F063FC2B4806F076FC0D223B4932
:10572000284806F05BFC3378DAE43948FDF70AFADA
:10573000264B1A78072A00F0F9873378D0E4002046
:10574000FBF798FE082230491E4806F047FC1D482A
:1057500006F05AFC0C2224491A4806F03FFC337824
:10576000BEE41A4FFBF756FC3B78073B012B41F296
:105770002B813378B4E40020FBF77CFE0822224919
:10578000104806F02BFC0F4806F03EFC1122214980
:105790000C4806F023FC3378A2E40020FBF76AFEF5
:1057A00007221D49074806F019FC064806F02CFCA4
:1057B0000C220D49034806F011FC337890E400BF39
:1057C000FC4E0100DC97FF1F284F0100FF96FF1FD2
:1057D0001C4F01000C4F0100F04E0100B04E0100C3
:1057E000E04E0100CC4B0100B04D0100D04E010055
:1057F000BC4E0100F8470100D84D01000497FF1F7F
:10580000E44D0100D04D01006C4D0100C04D010080
:10581000EC4501009C4D0100485001000020FBF7C1
:1058200029FE0722B649B74806F0D8FBB54806F06E
:10583000EBFBB549B348082206F0D0FBB34BB148A7
:105840001B785A074CBFB249B249FEF735FE337890
:1058500046E4FEF7A5FBB04A1378072B00F0588703
:10586000082B00F04B8733783AE40020FBF702FE68
:105870000722A349A34806F0B1FBA24806F0C4FBE7
:105880000D22A6499F4806F0A9FB337828E40020A2
:10589000FBF7F0FD0622A2499A4806F09FFB3378F9
:1058A0001EE40020FBF7E6FD10229E49954806F015
:1058B00095FB944806F0A8FB0F229B49914806F0FF
:1058C0008DFB33780CE49948FDF73CF9924A137844
:1058D000072B00F0C487337802E40020FBF7CAFDF1
:1058E00010229049874806F079FB864806F08CFB29
:1058F0000C228F49834806F071FB3378FFF7F0BB29
:10590000FCF7BCFE844A1378073B012B41F27180FF
:105910003378FFF7E5BB0020FBF7ACFD102281498F
:10592000784806F05BFB774806F06EFB0D22814954
:10593000744806F053FB3378FFF7D2BB7E48FDF77F
:1059400001F9754A1378072B01F018803378FFF7B7
:10595000C7BB0020FBF78EFD0B227849694806F093
:105960003DFB684806F050FB0C227149654806F083
:1059700035FB3378FFF7B4BBFCF746F93378FFF714
:10598000AFBB0020FBF776FD0B226C495D4806F0AB
:1059900025FB5C4806F038FB0E226949594806F0A1
:1059A0001DFB3378FFF79CBB0020FBF763FD0F2244
:1059B0006449544806F012FB3378FFF791BB00208E
:1059C000FBF758FD0B225D494E4806F007FB4D489A
:1059D00006F01AFB10225C494A4806F0FFFA3378B9
:1059E000FFF77EBBFCF762FC3378FFF779BB002042
:1059F000FBF740FD0B225149424806F0EFFA4148BF
:105A000006F002FB0D2251493E4806F0E7FA3378D2
:105A1000FFF766BB0020FBF72DFD0A224C493948F1
:105A200006F0DCFA3378FFF75BBB0020FBF722FDC2
:105A30000E224849334806F0D1FA324806F0E4FA1B
:105A40000B2245492F4806F0C9FA3378FFF748BBC7
:105A50004248FDF777F8304A1378072B00F0988713
:105A60003378FFF73DBB0020FBF704FD0E223949D8
:105A7000244806F0B3FA234806F0C6FA0C222C4953
:105A8000204806F0ABFA3378FFF72ABB0020FBF77B
:105A9000F1FC092232491B4806F0A0FA194806F029
:105AA000B3FA0A222F49174806F098FA2E4B1B78B2
:105AB000002B00F015862D491248FEF7FDFC3378C7
:105AC000FFF70EBB0020FBF7D5FC082228490D4844
:105AD00006F084FA3378FFF703BB0020FBF7CAFC1B
