:1000000000800020BD010000ADC7000065C70000F2
:1000100065C7000065C7000065C7000065C7000030
:1000200065C7000065C7000065C70000ADC70000D8
:10003000ADC7000065C700007DBE000081BE0000A6
:10004000ADC70000ADC70000ADC70000ADC70000E0
:10005000ADC70000ADC70000ADC70000ADC70000D0
:10006000ADC70000ADC70000ADC70000ADC70000C0
:10007000ADC70000ADC70000ADC70000ADC70000B0
:10008000ADC70000ADC70000ADC70000ADC70000A0
:10009000ADC70000ADC70000ADC70000ADC7000090
:1000A000C17D0000CD7D0000ADC70000ADC70000E0
:1000B000ADC70000ADC70000ADC70000ADC7000070
:1000C000ADC70000ADC70000ADC70000ADC7000060
:1000D000ADC70000ADC70000ADC70000ADC7000050
:1000E000ADC70000ADC70000ADC70000ADC7000040
:1000F000ADC70000ADC70000ADC70000ADC7000030
:10010000ADC70000ADC70000ADC70000ADC700001F
:10011000ADC70000ADC70000ADC70000ADC700000F
:10012000ADC70000ADC70000ADC70000ADC70000FF
:10013000ADC70000ADC70000EDBC0000ADC70000BA
:10014000ADC70000A58D0000ADC70000ADC7000021
:100150006DBF000081BF000095BF0000A9BF000077
:10016000ADC7000035D10000ADC70000ADC700002D
:10017000ADC70000ADC70000ADC70000ADC70000AF
:10018000ADC70000ADC70000ADC70000ADC700009F
:10019000ADC70000ADC70000ADC70000ADC700008F
:1001A000ADC70000ADC70000ADC70000ADC700007F
:1001B000ADC70000ADC70000ADC70000564B4CF204
:1001C000205210B51A804DF628121A8000BF00BFC9
:1001D0000CF0F0FA514B4FF010621A60504A9A60DE
:1001E000504ADA60504A136813F4807304D14F49BF
:1001F0000B604FF4A85313604D4B1A78110703D5C9
:100200001A7842F008021A704A4B4B492A221A7097
:100210004A4A4B4B8B4204D252F8040F43F8040B6A
:10022000F8E7484B484900228B4202D243F8042B9E
:10023000FAE74649464A002352F8230041F82300D2
:1002400001336F2BF8D1434B434A802103F8011B44
:100250009342FBD1414B3D4A1A60414B8A221A70AE
:10026000A3F5805324225A70A0221A709A7992071B
:10027000FCD59A79D406FCD43A4A937903F00C035E
:10028000082B384BF9D105221A7143225A719A79F9
:100290009006FCD5334A9179324B4906FBD5324A58
:1002A0004FF0817111600521516020221A709A79F6
:1002B00002F00C020C2AFAD12C4B2D4A1A602D4B5D
:1002C0002D4A1A6000225A60072243F8042C2B4A58
:1002D000C3F80C2D62B60CF0E3FD144B1B68DA0773
:1002E00005D527480CF0D0FB264B274A1A60274B30
:1002F0001B785B0609D5234C234B22689A4204D114
:100300001F480CF0C1FB002323600FF0C1FA0CF072
:1003100057FA0CF085F9FEE70E20054030800440C6
:10032000823F04000100002B10D0034014D0034092
:1003300002D0074000E007407894FF1FE469010005
:100340002087FF1F7894FF1FE8BCFF1F0082FF1F5C
:100350000000000000E400E05FE400E008ED00E0E1
:1003600000500640004006404480044004800440A1
:10037000C010050014E000E03F190100000020203B
:10038000113856601CE00340A5C3945A00F00740A2
:10039000FFFFFFFFFFFFFFFFFFFFFFFFFFFFFFFF6D
:1003A000FFFFFFFFFFFFFFFFFFFFFFFFFFFFFFFF5D
:1003B000FFFFFFFFFFFFFFFFFFFFFFFFFFFFFFFF4D
:1003C000FFFFFFFFFFFFFFFFFFFFFFFFFFFFFFFF3D
:1003D000FFFFFFFFFFFFFFFFFFFFFFFFFFFFFFFF2D
:1003E000FFFFFFFFFFFFFFFFFFFFFFFFFFFFFFFF1D
:1003F000FFFFFFFFFFFFFFFFFFFFFFFFFFFFFFFF0D
:10040000FFFFFFFFFFFFFFFFFFFFFFFFDEF9FFFF23
:1004100010B5054C237833B9044B13B10448AFF33E
:1004200000800123237010BD7894FF1F000000009E
:10043000E0690100084B10B51BB108490848AFF34B
:1004400000800848036803B910BD074B002BFBD0A0
:10045000BDE81040184700BF000000007C94FF1F5B
:10046000E06901007894FF1F000000002DE9F041D1
:1004700007460E4615461C464FF00808F9090520A8
:1004800006F0F4FC0121072006F0F0FC062006F03F
:1004900001FB002140EA4707072006F0E7FCB8F11E
:1004A0000108FFB2EAD10827F109052006F0DEFCB9
:1004B0000121072006F0DAFC062006F0EBFA002105
:1004C00040EA4606072006F0D1FC013FF6B2EBD128
:1004D0000826E909052006F0C9FC0121072006F0DD
:1004E000C5FC062006F0D6FA002140EA45050720A3
:1004F00006F0BCFC013EEDB2EBD10825E109052078
:1005000006F0B4FC0121072006F0B0FC062006F03E
:10051000C1FA002140EA4404072006F0A7FC013D8F
:10052000E4B2EBD12046BDE8F08100BF1B4B1C4A72
:10053000588CD98CB3F81CC0F0B51D8C9E8CB3F8C8
:1005400014E0DC8A1F8B00EB052506EB052501EB8B
:10055000052515615D8855709D889570DD88D5707D
:100560001D8915715D8955719D899571DD89D571DB
:100570001D78D98B1E8A588B1672DF2D094E01EB20
:100580000C2304EB0E2400EB072094BF0021012173
:1005900054819081D38115703170F0BD90B8FF1FE8
:1005A0001097FF1F6597FF1F10B51B4C0420217883
:1005B00006F05CFC012104200CF01CFC002107204B
:1005C00006F054FC0021052006F050FC0121062015
:1005D00006F04CFC0021072006F048FC14200CF02B
:1005E0000FFC2178042081F0010106F03FFC4FF45C
:1005F0001663013BFDD10420217806F037FC322040
:100600000CF0FEFB00231A465321AC20FFF72EFF0F
:10061000024B01221A6010BD6597FF1F4097FF1F14
:1006200008B50121052006F021FC0121072006F074
:100630001DFC074B1978042081F0010106F016FC1F
:100640000121042006F012FC024B00221A6008BDB2
:100650006597FF1F4097FF1F08B5C2B2C0F307217F
:1006600000234C20FFF702FF1E20BDE808400CF0DD
:10067000C7BB00BF0F4B9B89202B0BD0402B0ED04C
:10068000802B11D0B3F5807F0B4B186808BF20F08A
:100690007F007047084B186820F00F007047064B2A
:1006A000186820F01F007047034B186820F03F00C7
:1006B000704700BF1097FF1F1096FF1FF8B5024646
:1006C000FFF7D8FF002A064628DD571E164C174DA7
:1006D0007F0804EB870729682378CAB24020C1F35A
:1006E0000721FFF7C3FE2968A378CAB24820C1F3E7
:1006F0000721FFF7BBFE2B68A74203F101032B6024
:1007000004F104040AD0FFF7B5FF8642E3D0304677
:10071000FFF7A2FFFFF7AEFF0646DCE73046FFF724
:100720009BFF1020F8BD00BF90B8FF1F1096FF1F61
:10073000B0F80231C3B1B0F80031C35C0B70B0F84F
:100740000031B0F8022101339BB2013AB3F5807F4A
:10075000A0F80031A0F8022101D001207047002349
:10076000A0F80031012070471846704730B5114D90
:10077000114CB5F8020183B000238DF8073068B939
:1007800023784BB903F042F8B5F8023133B9237836
:10079000002BF7D09DF8070003B030BD2378002B65
:1007A000F8D10DF107010348FFF7C2FF9DF80700DC
:1007B00003B030BD0C95FF1FFD96FF1FF8B50E1E50
:1007C00004461BDD0E4D05EB4607FFF7CFFF25F86E
:1007D000020FBD42F9D10A4D264435F8023FE2B27C
:1007E000C4F30721DBB2C020FFF740FE01342D2007
:1007F0000CF006FBB442F0D11020F8BDFCD0EAE7C3
:100800008EB8FF1FF8B5154BDB89984220D8144BE2
:100810001F68202806464FEA470713D905463C467D
:100820002046203D2021FFF7C9FF202D04F12004A0
:10083000F6D8A6F121035B092037203E07EB4317CA
:10084000A6EB431631463846FFF7B8FF1020F8BD37
:10085000044A1368013313601120F8BD1097FF1F7D
:100860001096FF1F90BAFF1FB0F80221B2F5807FEB
:100870000ED0B0F800311344FF2B88BFA3F580736E
:100880009BB20132C1540123A0F8022118467047DF
:1008900000231846704700BF08B5FFF767FF202800
:1008A00008D0094A09481368152101331360FFF77E
:1008B000DBFF08BD14210548FFF7D6FF10210348D0
:1008C000FFF7D2FF08BD00BF90BAFF1F4498FF1F7B
:1008D00010B50446FFF74AFF202808D00A4A0B4803
:1008E0001368152101331360FFF7BEFF10BD1421FB
:1008F0000648FFF7B9FF21460448FFF7B5FF10216E
:100900000248FFF7B1FF10BD90BAFF1F4498FF1FC8
:100910008038132817D8DFE800F013100D161616CC
:10092000161616161616161616161616160A53202C
:10093000FFF7CEBF1220FFF7CBBF0120FFF7C8BFE4
:100940000220FFF7C5BF0020FFF7C2BF70B50A4DF8
:100950002C4605F10806FFF709FF24F8020BB44204
:10096000F9D1AB792A79A9782878FFF77FFDBDE81E
:100970007040FFF7ADBF00BF90B8FF1F70B5061EF7
:1009800008DD114C04EB4605FFF7F0FE24F8020FDA
:10099000AC42F9D1FFF7EAFE202808D00B4A0C48F8
:1009A0001368152101331360FFF75EFF70BD14213A
:1009B0000748FFF759FF3046FFF780FE014604481D
:1009C000FFF752FF70BD00BF8EB8FF1F90BAFF1F28
:1009D0004498FF1F002828DD70B5461E26F001064A
:1009E000134C0236002521680023CAB22020C1F32F
:1009F0000721FFF73BFD01460E48FFF735FF216851
:100A00000023CAB22820C1F30721FFF72FFD0146BA
:100A10000848FFF729FF236802350133236002F0FD
:100A2000F5FEB542DFD1102070BD1020704700BF29
:100A30001096FF1F4498FF1F38B50B4B00281C6809
:100A400010DD640005462544E2B2C4F30721FF230C
:100A5000A020FFF70BFD013401460448FFF704FF17
:100A6000AC42F1D1102038BD1096FF1F4498FF1FF3
:100A700008B5044A04481368152101331360FFF7D1
:100A8000F3FE08BD90BAFF1F4498FF1F10B5FFF793
:100A90006DFE0402FFF76AFE0444FFF767FE462876
:100AA0001BD0452804D011210E48FFF7DDFE10BDF4
:100AB0002046FFF7A7FE0446FFF758FE202803D084
:100AC000BDE81040FFF7D4BF14210648FFF7CCFE65
:100AD00021460448FFF7C8FE10BD2046BDE810407F
:100AE000FFF74CBF4498FF1F70B5FFF73FFE064667
:100AF000FFF73CFE0446FFF739FE0546FFF736FEDA
:100B0000202803D0BDE87040FFF7B2BF14210C4885
:100B1000FFF7AAFE462D04EB062406D0452D09D08A
:100B200011210748FFF7A0FE70BD2046FFF752FFD6
:100B30000146F6E72046FFF77FFF0146F1E700BFD9
:100B40004498FF1F08B5FFF711FE202808D0184A67
:100B500018481368152101331360FFF785FE08BD9F
:100B600014211448FFF780FE00231A46194630204E
:100B7000FFF77CFC01460F48FFF776FE002319467D
:100B800001223020FFF772FC01460A48FFF76CFE95
:100B90000023194602223020FFF768FC0146054871
:100BA000FFF762FE10210348FFF75EFE08BD00BF9D
:100BB00090BAFF1F4498FF1F38B5FFF7D7FD714B60
:100BC0001B78002B3FD1704AA0F120031070552BE9
:100BD0002CD8DFE803F0412B2B2B2B2B2B2B2B2B93
:100BE0002B2B2B2B2B2B93A02B2B2B2B2B2B2B2B78
:100BF0002B2B2B2B2B2B2B9A622B2B582B2B2B2B72
:100C00002B2B2B2B2B2B4E862B2B2B718F2B2B2B0C
:100C10002B2B2B2B2B2B393B2B2B4A2B2B2B2B2BE7
:100C20002B2B2B2B2B2B2B2B2B2BCECA574A136862
:100C300001331360FFF79AFD202800F09E801521F4
:100C40005348FFF711FE38BDFFF790FDFFF78EFD0B
:100C5000BDE83840FFF720BE4C4A4D4813681521C7
:100C600001331360FFF700FE38BDBDE83840FFF7E1
:100C70000DBF484B1B68002BEAD1474B01221A706D
:100C8000FFF792FCE4E7454C04F10A05FFF76EFD1F
:100C900024F8020BAC42F9D1DAE7414C04F1280503
:100CA000FFF764FD24F8020FA542F9D1FFF73EFCDF
:100CB000BDE83840FFF7F0BDFFF758FD394C206024
:100CC000FFF754FD236803EB00202060FFF7E4FDED
:100CD000314A13780133DBB2082B88BF012313702C
:100CE00038BD2A4B00221A60FFF79AFCBDE8384055
:100CF000FFF7D2BDBDE83840FFF728BE234B0022E6
:100D00001A60BDE83840FFF7C7BDFFF72FFDBDE80B
:100D10003840FFF7FDBDFFF729FD202804469BD191
:100D200014211B48FFF7A0FD41211948FFF79CFD46
:100D300056211748FFF798FD52211548FFF794FDFB
:100D400021461348FFF790FD49211148FFF78CFD1C
:100D500053210F48FFF788FD50210D48FFF784FD10
:100D600010210B48FFF780FD38BDBDE83840FFF784
:100D7000E9BEBDE83840FFF7B7BE12210448FFF7CF
:100D800073FD38BDFD96FF1F2697FF1F90BAFF1F0A
:100D90004498FF1F4097FF1FCD97FF1F90B8FF1F7C
:100DA0008EB8FF1F1096FF1FF0B5274B274A1B6810
:100DB00085B0039303991368CB1A632B01D805B050
:100DC000F0BD234C116023780133237002F01EFD27
:100DD000204B24781A7804F00304A2421AD01E4D46
:100DE0001C707826002210231C27019200932846AD
:100DF0000823314612222F82EE8108F0D5FE032C03
:100E000008D8DFE804F01B02150F0122134912482D
:100E10000BF0D4F8124BDB78002BD0D001F046FA5F
:100E200005B0F0BD01220F490B480BF0C7F8F1E700
:100E300001220D4908480BF0C1F8EBE701220B49EC
:100E400005480BF0BBF8E5E78CBBFF1F9494FF1F30
:100E50000088FF1F2597FF1FDC97FF1FE83B01005D
:100E60000497FF1FF03B0100EC3B0100E43B010055
:100E700008B5FFF799FF074BB3F802313BB9064BB2
:100E80001B6803B908BDBDE8084001F00FBAFFF7C1
:100E900093FEF4E70C95FF1F90BAFF1F30B4074A8A
:100EA000074BD489158A1C71002201245D71D8700A
:100EB0001C7099705A7030BC704700BFDC97FF1FE0
:100EC000D097FF1F10B5364C2378D80784B059D47B
:100ED00099074AD45A073BD418072CD4D9061DD4F5
:100EE0009A060ED45B060AD50321022201238DE85F
:100EF0000E002C4809232022522109F09DFA04B04B
:100F000010BD0921022201238DE80E00254803238C
:100F10001822502109F090FA2378E3E709210222F0
:100F200001238DE80E001F4803232222502109F0DF
:100F300083FA2378D4E70321022201238DE80E00EF
:100F4000184809232A22522109F076FA2378C5E7A6
:100F50000921022201238DE80E00124803232222D8
:100F60005A2109F069FA2378B6E709210222012300
:100F70008DE80E000B48032318225A2109F05CFA71
:100F80002378A7E70321022201238DE80E000548FC
:100F900009231622522109F04FFA237898E700BF5F
:100FA0009A94FF1FDC97FF1F70B5144B14499A7871
:100FB000144E002382B00B7002B13360124C002536
:100FC000132320460195294600931022802308F020
:100FD000EBFD33680D4AE581162120250C4825825A
:100FE0000FF018FA0A480FF06BFA0949024620463A
:100FF00002B0BDE870400AF0E1BF00BF0497FF1FD8
:101000000997FF1F8CB8FF1FDC97FF1FF43B0100FF
:101010004C97FF1F30B51E4B9B7883B04BB11D4AD8
:101020001D4C13781D4901330725002013702570CE
:1010300008701B4C002113230191204600931022BD
:10104000802308F0B1FD202305222382E28107F0EE
:101050005BFF0EF09FF913490EF0A8FA0DF0C0FDEA
:10106000114ACDE90001102110480FF0D3F90F48C3
:101070000FF026FA0D49024620460AF09FFF0C4960
:101080002046042203B0BDE830400AF097BF00BFFD
:101090000497FF1F6397FF1FFF96FF1FD097FF1F47
:1010A000DC97FF1F0000C842FC3B01004C97FF1F6C
:1010B000043C01002DE9F041344B354E1A7882B0E2
:1010C00012B13278002A51D15A78324F32B1327887
:1010D00039882F48914284BF013202709B784BB10E
:1010E0002D4A2E4C13782E4901330725002013700A
:1010F000257008702B4CDFF89880002511232946B5
:101100000093102280232046019508F04DFD33788E
:1011100005212022E18122825BB30122224920465F
:101120000AF04CFF2B4698F800100A2220460AF0DD
:101130006BFF03221D4920460AF040FF98F800305B
:10114000204637F813100AF09FFF04221849204662
:101150000AF034FF98F8002037F812102B4620468A
:10116000102202B0BDE8F0410AF04EBF013A3270E1
:10117000AAE7398820460AF087FF0E492046062252
:1011800002B0BDE8F0410AF019BF00BF0497FF1F8D
:101190000A97FF1F90B8FF1F6397FF1FFF96FF1F5F
:1011A000D097FF1FDC97FF1F143C0100183C010083
:1011B0001C3C01000C3C01002DE9F043314B9B78B5
:1011C00085B04BB1304A314C137831490133072592
:1011D00000201370257008702E4C2F4F2F4E0025C5
:1011E000132329460093102280232046019508F0FE
:1011F000DBFC3B6802933268029B9B1A052120228C
:10120000B3F5FA7FE181228231D9DFF8A480D8F8E2
:101210000000A8422EDD0EF0C1F8DFF898900146DC
:10122000D9F800000EF0C2F90EF0D2FA0AF09AFCDA
:101230000DF0D6FC1A4ACDE90001102119480FF033
:10124000E9F818480FF03CF91649024620460AF022
:10125000B5FE0322204614490AF0B0FE3B68039312
:101260000022039BC8F80050C9F80020336005B085
:10127000BDE8F08320460B220C490AF09FFE05B022
:10128000BDE8F0830497FF1F6397FF1FFF96FF1FC2
:10129000D097FF1FDC97FF1F8CBBFF1FC897FF1F56
:1012A000243C01004C97FF1F2C3C0100303C010006
:1012B000E896FF1FC497FF1F2DE9F043634C83B0EE
:1012C00000250F2720462A462946802301950097AE
:1012D000012608F069FC2A4629462046802300970B
:1012E000019608F0E3FC4FF00B0804230222584952
:1012F000E3812046A4F810800AF060FE554B186880
:101300000DF06EFC4FF0020902460B46CDF800903E
:1013100020460AF0C1FE504B1B78002B53D02A46C2
:101320003923472120460196009708F03DFC4A46A4
:101330004B234A49A58220466582E381A4F81080A8
:101340000AF03CFE464B474918680EF02FF90DF0A5
:1013500047FC032502460B46009520460AF09CFEFA
:10136000A6826682404D2A780F23012612F00102E0
:101370008DE848004FF00E033DD00022392133485C
:1013800008F012FC3C2000233246E0810B2737494D
:101390002E48A382638227820AF010FE2B78A68251
:1013A00003F00403668203F0FF02002B37D10F2302
:1013B0000192009331221A236621244808F0F4FB9D
:1013C00003B0BDE8F0834A464B232449E38120461D
:1013D000A4F810800AF0F2FD214B224918680EF0A3
:1013E000E5F80DF0FDFB032502460B46009520466F
:1013F0000AF052FEB6E73921144808F057FC32468D
:101400000B233C26194911482382E6810AF0D6FDB8
:101410002B7803F0040303F0FF02002BC7D00F2248
:1014200001238DE80C0066211A233122074808F0B9
:101430003DFC0F49054868253C230322E5812382B2
:1014400003B0BDE8F0430AF0B9BD00BFDC97FF1F51
:101450003C3C0100F896FF1FD697FF1F403C01005F
:10146000F096FF1F00007A440895FF1F443C0100DE
:10147000483C01002DE9F04FDFF87882984C98F84D
:101480000030B4F90E60B4F91050032B85B046D08B
:1014900000274FF00F09DFF860B201973946CDF809
:1014A000009017233122204608F07EFB9BF800A015
:1014B000BAF1020F67D001234FF0030A39460293B5
:1014C000312217232046CDF80090CDF804A008F073
:1014D00007FF3C230222834923822046A4F80EA062
:1014E0000AF06CFD98F800305A1E012A6CD91A27B0
:1014F000B846B946023B012B17D900200F220190B4
:101500000092C7F1650341463122754808F04CFB53
:10151000F6B2EDB2E681258205B0BDE8F08F4FF05E
:101520000008DFF8D4B14746C1460023DFF8B0A178
:1015300001930F230093504623233122414608F0A4
:1015400033FB9BF800B0BBF1000F6DD001220323E9
:101550000F210091029241460193312223235046EC
:1015600008F0BEFE03373C23504604225E49AAF829
:101570000E70AAF810300AF021FD09F123070FFAC6
:1015800087F8BFB2B9E70123029303230193312205
:10159000172339462046CDF8009008F04DFF4FF054
:1015A00003003C235246E0814E4923822046A78215
:1015B00067820AF003FD4FF00103A382638298F86B
:1015C00000305A1E012A92D8454FDFF82CA1002383
:1015D0004FF00F09019338461623CDF800903122C1
:1015E0001A2108F0E1FA9BF80030012B3ED0042BC1
:1015F0003CD0012203230292019331221623CDF81D
:1016000000901A21384608F06BFE9AF80030042B3F
:101610004FF01C0251D03B23FA81384602223B8214
:1016200032490AF0CBFC42E00F2203230092012250
:1016300041460292019331222323504608F0FCFEDA
:1016400003373C23AAF8103004222749AAF80E7069
:101650005046AAF814B0AAF812B00AF0AFFC4FF046
:101660000103AAF81430AAF8123086E71C4F0121B2
:1016700003220F2302910192009331221623384650
:101680001A2108F0D9FE9BF800200023042AA38227
:1016900063824FF01C0219D03B23FA8138460222A4
:1016A0003B8212490AF08AFC0123A382638233271A
:1016B00098F80030B946B8461CE73C23FA81384612
:1016C00002223B820A490AF079FCF0E73C23FA81C6
:1016D000384602223B8206490AF070FCE4E700BF6C
:1016E000DC97FF1F4C3C0100583C0100543C0100BA
:1016F000503C0100FC96FF1FFF96FF1F2DE9F041B3
:10170000B14AB24F1378B24E84B0002B40F0AC8097
:101710003B78B04DB04C327894F80080AC49002A48
:1017200000F08180B8F1020F00F0C6802A78002A0C
:1017300040F02D814A78002A00F0C881B278002A52
:1017400000F0C8814FF002082278012A00F0A18140
:101750005D2B00F0F981002084F80080FFF78AFEFD
:101760002E789E4C012E00F0F680012603221123D4
:10177000204602960192009314220C23002108F0C7
:10178000AFFD32462023022620469549E68123827A
:101790000AF014FC2B78914803220126052B4FF008
:1017A00011030192009302964FF00C034FF01402C4
:1017B0004FF0100100F0BC8008F092FD324620236B
:1017C000122688498548E68123820AF0F7FB2B78A8
:1017D0000A2B00F093801121032201238DE80E00D3
:1017E0007E4816231422202108F07AFD222520238A
:1017F00002227D497948E58123820AF0DFFB3B78AC
:10180000412120225D2BE181228200F0278177494E
:101810007248052204B0BDE8F0410AF0CFBB0120B8
:1018200005F040FB3B787278002A4BD02278022AE0
:1018300000F028812A78002A80D05D2B40F04D816D
:101840006B4803686A49B32B9CBF9B180B60B42B91
:1018500001D9B4230360B378002B40F043810168C1
:10186000644808F061F876E700213B78DFF894E1FE
:10187000584D5F48584C117001224FF05A088EF8AD
:1018800000205D2B4FF00202B1702970C0F800807B
:10189000227000F0B980692B7FF43DAF564A13786F
:1018A000012143F030030020137005F015FA0120E8
:1018B0000BF0A6FA3B782EE74A78002A40F0E28047
:1018C0004FF00108B278002A3FF442AF2278022A92
:1018D0007FF43BAF692B00F03981484948480A78CA
:1018E000002601325D2B0A70067000F01A81227802
:1018F000012A00F05B814FF007082CE70125112237
:1019000003238DE82C00202116231422334808F0ED
:1019100093FD202600232220E081022232492F4815
:101920002682A38263820AF049FBA582658266E76C
:1019300008F082FD002312204FF0200EE081324695
:1019400028492648A4F810E0A38263820AF036FBF7
:10195000A68266823BE70322112320460192009370
:1019600014220C230021029608F066FD00230221B8
:101970004FF0200EE181204632461949A4F810E0CC
:10198000A38263820AF01AFBA682668202E75D2BBD
:101990007FF445AF1648D0F800E0BEF1000F00F02C
:1019A000A380C2EB0E01C82996F801E088BF002190
:1019B00001600749BEF1000F7FF443AF8A78002A27
:1019C0003FF44DAFC0E600BFFE96FF1FEC96FF1F31
:1019D0000497FF1F0097FF1FFF96FF1FDC97FF1F55
:1019E000603C0100643C0100503C0100743C01007B
:1019F0008CB8FF1FA094FF1F0895FF1F6397FF1F60
:101A0000D097FF1FFC96FF1F40F6C4134FF4FA72E5
:101A10000521754807F04CFF744A754B7248042144
:101A200011601A6822F010021A601A6842F020024F
:101A30001A601A6822F004021A601A6842F008025A
:101A40001A60052140F6C4134FF4FA7207F030FF14
:101A50004146654807F068FF3B781CE7654B664ADE
:101A60001B6866485A3B1BB20A210EF0D3FC634840
:101A70000EF026FD61490246614804B0BDE8F04120
:101A80000AF09CBAB278002A7FF424AF4FF0010824
:101A90005EE62A780A2A3FF65BAE01A151F822F0F1
:101AA0001D1B0000131B0000511700005117000000
:101AB00051170000091B00005117000051170000CA
:101AC0005117000051170000FF1A00008A78002A01
:101AD0007FF438AE4FF002083AE6002005F0E2F954
:101AE0003B78EFE65D232FE64A78002A7FF4A2AE2A
:101AF0008A78002A3FF4B3AEE8E64FF007080022E8
:101B00002A7025E64FF007080A222A7020E64FF0D7
:101B1000070805222A701BE64FF0070801222A70E9
:101B200016E63249324A207804260E60116821F008
:101B3000040111601168012821F00801116015D01D
:101B40004FF007082B488AE62A4888E62D4A137882
:101B500003F0DF036FF3041301210020137005F07D
:101B6000BBF801200BF04CF93B78B6E62A780A2A3C
:101B700018D801A151F822F0191B00000F1B00001A
:101B8000A51B0000A51B0000A51B0000051B0000F5
:101B9000A51B0000A51B0000A51B0000A51B000045
:101BA000FB1A000013484FF0070858E62A780A2A63
:101BB0003FF6A1AE01A151F822F000BF191B0000B1
:101BC0000F1B0000F7180000F7180000F7180000BE
:101BD000051B0000F7180000F7180000F7180000B8
:101BE000F7180000FB1A0000A094FF1F5480034068
:101BF000448003408CB8FF1F683C01004C97FF1FD6
:101C0000DC97FF1F0895FF1F1149124A38B50B7862
:101C100043B1114D114C1248002393700B702B707F
:101C200023700360D3780B4C6BB10E4B42221A70B9
:101C300005F002F90C4A0848137801252B440021CD
:101C400013700570E1700020BDE83840FFF712BC4A
:101C5000FE96FF1F0497FF1FFD96FF1F2697FF1F8D
:101C600090BAFF1FEC96FF1F6397FF1FF0B56A4BFA
:101C70006A4C1A78267883B04ABB694D2B78684A3B
:101C80003BB12378032B34D0042B00F08D80022B42
:101C900045D06B7843B12378032B00F0AD80042B43
:101CA0004BD0022B00F08E80AB782BB1032E3FD0AF
:101CB000042E2FD0022E60D000202670FFF7DAFB12
:101CC00005F0A4FC2378032B60D003B0F0BD002204
:101CD000534D544F1A704FF0010E02231146FF204E
:101CE000AA7087F800E0237004F0F6FF04F0A0FE6D
:101CF000C4E74D4B1968002939D052780139196071
:101D0000002AD1D01A68002A79D0AB78002B34D1C0
:101D10000226D1E7454B00221A700326CCE7424B3E
:101D200051780120186000294DD19378002BF4D010
:101D30003E4B01221A700426BEE73B4B1B68002B6A
:101D400067D13B4B19783A4A01F00F030C2B02D8AC
:101D50000131C9B211700023102236480AF054F93B
:101D600034480AF041F9AB78002BA5D09EE75178B2
:101D7000002943D19378002BCAD02F4A2B491378DE
:101D80000020013313700870072695E7264B2B4877
:101D90001968890101232431009309B204231E220A
:101DA00008F060FA03B0F0BD1F4B1B688BB9204BE5
:101DB0001A78110701D0013A1A706A78002A3FF4A4
:101DC00073AFBFE7184BAA7800211960002AAFD182
:101DD000A3E7174B1A7812F0F00F01D0103A1A70DF
:101DE0006A78002A3FF460AF1978114BBF29B2D846
:101DF0001031C9B21970AEE70B4B83E702260C4ACB
:101E0000127802F00F020C2A3FF67FAF01221A600F
:101E10004AE7074BE8E700BFFE96FF1FFF96FF1F4C
:101E20000497FF1FFC96FF1F8CB8FF1FD097FF1F62
:101E30000495FF1F108AFF1F6397FF1FDC97FF1F8A
:101E4000F0B5002083B0FFF715FB464B1A781AB1A6
:101E500045490A68002A79D15A78444E3AB1424835
:101E600032880168013A8A4284BF013101609B785F
:101E70004BB13F4A3F4C13783F49013307250020BF
:101E80001370257008703D4C384D002111230191CD
:101E9000009310228023204607F086FE3388052118
:101EA0002022E1812282002B53D02F4E344903227D
:101EB00020460AF083F83368324A33481B0103F1A5
:101EC0000807D91D03F1060E35F8111035F8177003
:101ED00035F81E308DE882000A210EF09BFA2A4860
:101EE0000EF0EEFA2849024620460AF067F8274924
:101EF000022220460AF062F833681B0103F10A024D
:101F0000093335F8120035F8133003EB00200DF0DB
:101F100045FA4FF076510DF095FA0CF061FE1C4A2F
:101F2000CDE900010A2118480EF074FA16480EF0A7
:101F3000C7FA1549024620460AF040F815492046DE
:101F4000012203B0BDE8F0400AF038B8013A0A6057
:101F500082E711492046102203B0BDE8F0400AF0A4
:101F60002DB800BF0497FF1F8CB8FF1F90B8FF1F4C
:101F70006397FF1FFF96FF1FD097FF1FDC97FF1F80
:101F8000903C0100943C01004C97FF1FA43C0100D1
:101F9000A83C01001C4E01007C3C010030B5002033
:101FA00083B0FFF767FA4E48037893B14D4C23781E
:101FB000002B5ED0013B13F0FF034B4A5AD0D15C9B
:101FC00031B9013B13F0FF0354D0D15C0029F8D0A4
:101FD00023604378A3B1434C23780B2B0CD80133F7
:101FE000DBB20C2B404A05D0D15C41B90133DBB2E6
:101FF0000C2BF9D1127B01E03B4AD25C02B1236089
:1020000083784BB1394A3A4C13783A490133072562
:102010000020137025700870374C384D00211123B3
:102020000191009310228023204607F0BDFD2B78FC
:1020300005212022E181228263B92D4A11780129EC
:102040002F4908BF13700F222B4803B0BDE8304062
:1020500009F0B4BF234B244A1B68D25C7AB10B2B26
:102060000DD8DFE803F0111F2225282B2E3134373D
:102070003A0E1D4A1378002BABD00023A8E703B01B
:1020800030BD0A221F49DFE70A221F491A4809F01A
:1020900095FF297818480A22002309F0B5FF062287
:1020A0001A49D1E709221A49CEE70B221949CBE791
:1020B00010221949C8E710221849C5E7102218490B
:1020C000C2E70E221749BFE714221749BCE71022C6
:1020D0001649B9E714221649B6E710221549B3E7A5
:1020E0000497FF1F8CB8FF1FA494FF1F6397FF1F67
:1020F000FF96FF1FD097FF1FDC97FF1F3C97FF1F26
:10210000B03C0100903D0100C03C0100CC3C01000E
:10211000D43C0100E03C0100EC3C0100003D01002A
:10212000143D0100283D0100383D0100503D0100F3
:10213000643D01007C3D01002DE9F0414D4F82B02E
:102140000020FFF797F93A78131F022B4A4B50D91A
:102150001A7804213970002A7AD15A78002A57D186
:102160009B784BB1454A464C1378464901330725C5
:102170000020137025700870002111234248DFF8F9
:10218000288100930191802310220646052407F040
:102190000BFD98F8005007E00834A4B209F00EFFD8
:1021A0006D00452CEDB20DD0202315F0800FF48189
:1021B00033824FF0010235493348EDD101223449D1
:1021C0003148E9E7022233492F4809F0F7FE3B780E
:1021D000052B35D0062B2BD0042B21D02E480EF00A
:1021E0006FF92D490246284802B0BDE8F04109F0D8
:1021F000E5BE19780029B0D0052A31D0062A27D1AA
:102200005A7804213970002AAAD006223A70A7E72A
:102210003A78052A21D0062A28D0042AA0D1F4E74A
:1022200098F800301D4A1C480A210EF0F3F8D5E753
:1022300098F800301A4A18480A210EF0EBF8CDE75A
:1022400098F90030174A14480A210EF0E3F8C5E760
:102250005A7805213970002A82D004223A707FE72B
:102260005A7806213970002A3FF47AAF05223A7075
:1022700076E700BF4298FF1F0497FF1F6397FF1F79
:10228000FF96FF1FD097FF1FDC97FF1F603C0100E8
:102290008C4E0100A43C01004C97FF1F9C3D0100A7
:1022A000AC3D0100A43D01009A94FF1F70B5964912
:1022B000964A0B7882B0002B6FD1D378944E934C12
:1022C000002B77D1934C0020FFF7D4F80025102382
:1022D00020462946009312227823019507F064FCDA
:1022E0001C230F2223828C49E581204609F066FEDB
:1022F000204609F079FE3368E5812A222282002BEC
:1023000072D1864B1B78303B442B6BD8DFE813F03F
:102310009B00AC006A006A006A006A006A006A00FA
:102320006A006A006A006A006A006A006A006A005D
:102330006A00B800C4006A006A006A006A006A00A5
:102340006A006A006A006A006A006A006A006A003D
:10235000D00061006A006A006A006A006A006A00D0
:102360006A006A006A006A006A006A006A006A001D
:10237000DC0022016A006A0041016A006A006A000A
:102380006A006A006A006A006A006A006A006A00FD
:102390006A006A006A006A007D00614C5F485C4E1A
:1023A0000023237093700B7003703360D378574C05
:1023B000002B87D05B4B40221A7004F03DFD5A4A37
:1023C0005748137801252B44002113700570E170E4
:1023D00078E70F23002100930191802322224D48AA
:1023E00007F0E2FB02B070BD0F23294600932046A0
:1023F00001958023222207F0D7FB4C4920460D226D
:1024000002B0BDE8704009F0D9BD00240F23214679
:102410000093222280233F480194454D07F0C4FBDE
:102420000A2244493B4809F0C9FD2B78002BD9D03A
:1024300001224149374809F0C1FD01342B78E4B24B
:10244000A342F5D8CEE700210F2301910093222269
:102450008023304807F0A8FB384907222D4802B0F6
:10246000BDE8704009F0AABD00210F23019100933F
:1024700022228023274807F097FB0A223049EDE704
:1024800000210F230191009322228023214807F08D
:102490008BFB0B222B49E1E700210F2301910093D5
:1024A000222280231B4807F07FFB0E222649D5E716
:1024B00000210F230191009322228023154807F069
:1024C00073FB07222149C9E700240F23214600930B
:1024D000222280230F480194154D07F065FB0C2242
:1024E0001B490C4809F06AFD2B78002B3FF47AAFAA
:1024F00001221149074809F061FD01342B78E4B24B
:10250000A342F5D86EE700BFFE96FF1F0497FF1F9A
:1025100090BAFF1FDC97FF1FB43D01002697FF1FF5
:10252000FD96FF1FEC96FF1F6397FF1FC43D010040
:10253000CD97FF1F383E01001C3E0100D43D010035
:10254000DC3D0100E83D0100F43D0100043E0100D6
:102550000C3E010000240F232146009322228023F9
:102560001B4801941B4D07F01FFB0B221A4918480A
:1025700009F024FD2B78002B3FF434AF01221749DA
:10258000134809F01BFD01342B78E4B2A342F5D8BF
:1025900028E700240F2321460093222280230C48A1
:1025A00001940C4D07F000FB0B220D49084809F07F
:1025B00005FD2B78002B3FF415AF01220749044895
:1025C00009F0FCFC01342B78E4B2A342F5D809E70A
:1025D000DC97FF1FCD97FF1F203E01001C3E01002E
:1025E0002C3E010030B51E4B9A7883B042B11D4994
:1025F0001D4C0A780725013200200A70257098705A
:102600001A4C0025212329461022204601950093CB
:10261000802307F0C9FA2846FEF72CFF0525202362
:102620002382E581172009F05FFF04F047FA0CF0E0
:10263000D7FA0F4ACDE9000116210E480DF0EAFE47
:102640000C480DF03DFF0B490246204609F0B6FC50
:1026500009492A46204603B0BDE8304009F0AEBC27
:102660000497FF1F6397FF1FFF96FF1FDC97FF1F55
:10267000443E01004C97FF1F4C3E01002DE9F04FF6
:10268000B14BDFF80CA31A78B04CB14D85B0002ADD
:1026900040F02A81AF4FDFF8FCB223789BF800604E
:1026A0002BB3731E052B22D8DFE813F0E6013F00A1
:1026B000C5010600B1018201DFF8DC82DFF89892E3
:1026C00098F9002019F80230013BDBB22F2B98BF9C
:1026D000392309F8023032B999F800309E4A312B7B
:1026E00084BF302313709C480DF092F82860637803
:1026F00073B9A37863B39BF80030013B052B27D84F
:10270000DFE813F0D901CE01B70166019301E001C2
:102710009BF80030013B052BEBD8DFE813F0CA0132
:10272000BF01DB015C01B4014E013B78DFF8688238
:102730008A496278013B88F8003001230B70834B93
:10274000002A40F0AB819B78002B40F0A981032642
:102750002B688BF80060092B9CBF0A232B6000209C
:10276000FEF788FE9BF800307D4E01210322062BE8
:102770004FF00F0302910192009330464FF0160381
:102780004FF031024FF0330100F0C98007F0A8FD8F
:102790009AF80030002B00F09D8037203B23F08119
:1027A000022270493382304609F008FC286805F09F
:1027B0007DFE9AF8003000212A22F1813282002B1E
:1027C0007DD106F0ADFA684A0346162162480DF045
:1027D00021FE61480DF074FE5F490246604809F031
:1027E000EDFB5F4809F000FC00241C2306225F4932
:1027F00033825B48F48109F0E1FB2B685C4A564860
:10280000B57B16210DF006FE3B78002B3CD0DFF89F
:102810008881DFF84491DFF844A10EE019F8041034
:102820004F4808F081F801343B780835E4B2EDB246
:102830001C22A342F581328226D998F900309C42AD
:10284000ECD19BF80030042B26D0032BE6D10022DC
:10285000F08919F804C0B6F810E08AF801200121C7
:1028600013468AF802208AF800108AF804000A2227
:10287000214640488AF803C08AF805E009F0C4FB05
:102880003C4809F0B1FBC9E73B493548032205B094
:10289000BDE8F04F09F092BB01238AF800308AF8B6
:1028A0000230002319F80410F2898AF80130338AC3
:1028B0008AF803108AF804208AF80530B0E706F099
:1028C0002FFA2E4B2E4AB3FBF0F3162122480DF0BF
:1028D000A1FD7EE736203C23F08102222949338284
:1028E000304609F06BFB61E700221A70264E194F43
:1028F0002649DFF8A0B08AF800200A2318462B608A
:102900001E4B336007233B7001230B700223A27020
:102910008BF8003005F0CAFD06F024FABDE607F09A
:102920008BFD9AF800200023B3827382B2BB36205D
:102930003C23F081022213493382304609F03EFBEA
:102940000123B382738231E7FE96FF1F0497FF1FB6
:102950008CB8FF1F9C94FF1F4C97FF1FD097FF1F41
:10296000DC97FF1F603E0100543E0100743E0100F1
:102970007C3E0100108AFF1F843E010040420F0090
:10298000643E0100703E010098BAFF1FFC96FF1FD5
:102990009B94FF1FFF96FF1F4398FF1F37203B2389
:1029A000F08102225A493382304609F007FBC7E71B
:1029B0006378584A002B00F09680DFF87081564A01
:1029C000A378002188F8001001211170002B78D124
:1029D0002B680326BDE6DFF85481DFF8409198F9B3
:1029E000002019F802300133DBB2392B88BF3023C5
:1029F00009F8023032B999F80030484A312B84BFC7
:102A00003123137045480CF003FF286071E62B68F2
:102A1000434A0A2B01D9013B136063783D4A002BDE
:102A200031D19378002B3FF493AE2B683A4A0021C2
:102A3000117001268DE6DFF8F48098F80030013B34
:102A40005BB2002B88F800305DDB62783149002AE8
:102A500045D03A7801335BB2013A934288F80030AE
:102A600003DB2D4B00221A700226A378002B3FF4C3
:102A70006FAE2B6804266CE66378264ACBB9937850
:102A8000CBB9022664E6274A2B6825499342A278EF
:102A900034D9002ACAD18BF8006060E6A37853B31A
:102AA00006F06CF920492B680A7801320A70072673
:102AB0004FE6A378E3B1184A2B680121117005266F
:102AC00047E603269AF800202B6882F001028AF874
:102AD00000203EE6DFF8548098F90030B9E78B78A3
:102AE000002BC6D134E693780126002BEAD12FE6DD
:102AF0002B6806262DE62B6801262AE601330B609B
:102B0000002A93D125E6044A0021117006269CE78D
:102B1000603E01000497FF1FD097FF1F4C97FF1FD7
:102B20008CB8FF1F3F420F006397FF1F4398FF1FA2
:102B30002DE9F04F00F5806199B00646034602E0AA
:102B4000994200F0F7809A1B13F8010B92B200280B
:102B5000F6D117467A4B1B78002B66D1794B079339
:102B60001B78002B57D1DFF8F0B1774D079B5B78CE
:102B700033B12B68744A01333BF8131001B1136071
:102B8000079B9B7833B1714A714913780720013351
:102B900013700870DFF8BC910024212301942146B2
:102BA000009310228023484606F0FEFF2B68A9F808
:102BB0000E405A1C3BF813403BF81280B8F1000F4E
:102BC00008BFB8461C23A045A9F8103007D9315DCD
:102BD00060480134A4B207F0A7FEA045F7D85D48CD
:102BE00009F002FA2B685C495A1C3BF812407CB190
:102BF000023331F81330002B18BF1F46A74207D904
:102C0000315D54480134A4B207F08EFEA742F7D8D4
:102C100019B0BDE8F08F4C4D2B68002B00F08C8074
:102C2000013BDFF834B12B60A0E70024454B484955
:102C3000DFF82CE107930122204602250D708EF863
:102C400000209C70FEF716FC09A903910DF12601E6
:102C500002910DF12A0101910AA900912346224611
:102C60003E493C48DFF8F0B007F0F4FFBDF826A07D
:102C700005940AEB4A0AA04625461FFA8AFA735DB4
:102C8000202B08BF0135BDF81430069308BFADB244
:102C90002BF813504FF00009AF420BD3705D202882
:102CA0002C4603D110E0335D202B0DD00134A4B2AB
:102CB000A742F8D2069A244D013200232BF8123095
:102CC0001F4A2B60137051E7A742F3D9631B312BC6
:102CD0001DDD0BA909AA03920DF1260202920DF146
:102CE0002A02002301920AAA00921A481A4607F003
:102CF000B1FFBDF8263009EB03025244732A15DCFC
:102D00005344994401341FFA89F9A5B2C4E7A54296
:102D1000DFD20BA90A462B4600E0F05C10700133AD
:102D20009BB2A34202F8018FF7D1D3E7059B013391
:102D30000593A4E701270DE7DFF81CB016E700BFF5
:102D4000FE96FF1F0497FF1F8CB8FF1F6397FF1F9E
:102D5000FF96FF1FDC97FF1F90B8FF1F883E010002
:102D6000FC96FF1F2DE9F0416B4C237884B0002BBB
:102D700038D06A4B1B78032B2DD3042B35D9052B68
:102D800029D1674D00270F26162328468DE8C0005D
:102D900031221A2106F008FF6378002B4ED04FF045
:102DA0000108032300960193312216231A21284695
:102DB000CDF8088007F040FB1C263B23022259492E
:102DC000AF8228466F82EE812B8209F0F7F8A5F8D2
:102DD0001480A5F81280524808F0B0FC637883F0A4
:102DE0000103637004B0BDE8F0814D4D56D06378A7
:102DF00021796279E9812A82474D002B33D0AB7863
:102E0000002B35D000200C23019000930A3A0823B0
:102E1000434806F0C9FE444B1B781C2BDBD1434AC8
:102E2000637811688901C9B283B301230093243107
:102E300004231E223A4807F015FACCE701220323A7
:102E40000096029201932846162331221A2107F098
:102E500047FA1C263B23284602223249EE812B8268
:102E600009F0ACF8B7E7E9782D4807F05DFDD2E747
:102E700001200C23019000930A3A0823284806F009
:102E800015FFE978264807F04FFDC4E70093243189
:102E900004231E22224807F0E5F99CE700270F26AD
:102EA000162328468DE8C00031221A2106F07CFE48
:102EB0006378E3B14FF001080323009601933122B8
:102EC00016231A212846CDF8088007F0B5FA1C26EB
:102ED0003B2302221649AF8228466F82EE812B8265
:102EE00009F06CF8A5F81480A5F812807FE701229C
:102EF00003230292019328460096162331221A21B9
:102F000007F0EEF91C203B23E881022208492B82BE
:102F1000284609F053F86AE7D097FF1FFF96FF1F76
:102F2000DC97FF1F543C0100EC96FF1F8CB8FF1F7D
:102F3000503C0100F8B5104D044628680F4606F0D5
:102F400051FB2146286806F0EFFB28680022BE21CD
:102F500006F0BAFB7C1E07F10806286806F0D4FBD1
:102F600004F8010FB442F8D13846092106F080FC7C
:102F7000B0FA80F04009F8BD4897FF1F2DE9F047EF
:102F8000CA4E8EB00020334606F10B0103F8010B48
:102F900099424FF00002F9D1DFF81883C44D88F848
:102FA0000020142009F026FC0521044606F0FEFA54
:102FB00020462C60DFF8009306F0C8FB0127C3E031
:102FC000777001249DF8063033B99DF805301BB9A0
:102FD0009DF80030282B01D00134B77002A9684653
:102FE000FFF7A8FF002800F0C0809DF80D30FF2BF0
:102FF0009DF80E3018BFF77003F1FF3218BF01348F
:103000000F2A0AD89DF80820502A00F04381FF2A91
:1030100000F059811344180701D0013437719DF82D
:103020000F302868102B1CBF0134777106F0DAFAD4
:103030006946286806F078FB00224E21286806F0D1
:1030400043FB9DF80A102868C943C9B2002206F064
:103050003BFB9DF80B102868C943C9B2002206F05B
:1030600033FB3F210022286806F02EFB286806F07B
:10307000B9FA05A96846FFF75DFF00287FD09DF8E3
:103080000A309DF81620DB43DBB29A4200F08980BB
:103090000134B7719DF818309DF819203F2B9DF829
:1030A0000D301CBFF77101349A426DD00134377274
:1030B000286806F097FA6946286806F035FB002272
:1030C0004E21286806F000FB00229DF80A102868AF
:1030D00006F0FAFA00229DF80B10286806F0F4FAC0
:1030E0007F210022286806F0EFFA286806F07AFAB5
:1030F00008A96846FFF71EFF00283BD09DF8243042
:103100009DF825207F2B9DF819301CBF7772013464
:103110009A429DF826207CD00134B7729DF8203069
:10312000502B48D0FF2B00F081800C2A00F0C68085
:103130001421286809F060FB002388F80040C9F8D2
:103140000030002C40F09A8001226946286806F081
:103150000BFB002800F09B800821684606F088FBE6
:1031600000287FF42DAF04462CE702A96846FFF73C
:10317000E1FE3AE708A96846FFF7DCFEBEE705A9CD
:103180006846FFF7D7FE7AE79DF81A209DF80E30C3
:103190009A428BD19DF81B209DF80F309A4285D121
:1031A00086E79DF80B309DF81720DB43DBB29A428F
:1031B0007FF46EAF6EE79DF82130052BB8D1102A51
:1031C000B6D84FF0050A286806F00CFA6946286858
:1031D00006F0AAFA44210022286806F075FA40F2A7
:1031E000EE2009F00DFE0BA96846FFF7A3FE30B3F1
:1031F0009DF82C30502B2AD0FF2B51D09DF8322037
:103200000C2A2CD10C331A072DD1BAF1010ADAD1CC
:103210008EE79DF81A3093427FF47EAF9DF8271019
:103220009DF81B3099427FF477AF77E79DF8213006
:10323000072B7FF47DAF102A3FF67AAFC1E70BA9C9
:103240006846FFF777FE9DF82C30502BD4D19DF8BF
:103250002D20052AD9D09DF832200C2A03D0134402
:103260001B073FF465AF14212868F772013409F099
:10327000C3FA002388F80040C9F8003001226946EB
:103280002868377006F070FA00287FF465AF0EB03A
:10329000BDE8F0879DF8091005297FF4BBAEBEE6B6
:1032A0009DF82D20072AD6D1AFE700BFA494FF1FB9
:1032B0004897FF1F3C97FF1F8CB8FF1F0C3319075F
:1032C0003FF47FAF34E79DF8091007297FF4A2AEE1
:1032D000A5E600BF2DE9F0433A4B3B493B4E3C4C41
:1032E0003C4D0027202287B01A82DF8118460C222D
:1032F00008F064FE1420376009F07CFA05210746C7
:1033000006F054F93846276006F020FA0DF10C0853
:10331000012201A9206806F027FA80B1414601A8E0
:10332000FFF708FE306801AB05EB401213F8011BF4
:1033300022F8021F4345F9D101303060E8E73368D5
:10334000072BEBD89BB307460DF10C08206806F05D
:1033500049F93AB24FEA021901AB05EB421232F8D1
:10336000021F03F8011B4345F9D101A9206806F0AB
:10337000DBF900224421206806F0A6F94FF47A70A8
:1033800009F03EFD414601A8FFF7D4FD013733683F
:103390009DF80C009DF80D2009F10901FFB209F11B
:1033A0000A099F4225F8110025F81920CED32B8059
:1033B000206800231421336009F01EFA07B0BDE82D
:1033C000F08300BFDC97FF1F8C3E01008CB8FF1F0D
:1033D0004897FF1F90B8FF1F014B01221A707047DA
:1033E0006497FF1F30B4036842681978847C1578AD
:1033F000037A427A19402A402CB3037C00293ED03C
:10340000304951F83340012384F88030447C002A4D
:1034100047D051F8341081F88030837A03F00303E9
:1034200043F004030AB143F008039A10013B82728F
:103430000D2B13D8DFE803F01E0F190F12141E1EF8
:1034400014120F190F1E837A03F003030029E9D029
:1034500043F00403E6E7C368013BC36030BC704738
:10346000C368023BC36030BC7047C3680233C360AB
:1034700030BC7047C3680133C36030BC704711492A
:1034800051F83340012384F80031447C8AB151F86B
:10349000342082F88030837A03F0030343F008037A
:1034A000C3E751F8341081F80031837A03F0030345
:1034B000B6E751F8342082F80031837A03F0030331
:1034C000B3E700BFB865010008B5024B186CFFF701
:1034D00089FF08BDECBAFF1F08B5024BD86BFFF798
:1034E00081FF08BDECBAFF1F034A0449136801209D
:1034F00003441360087070478CB8FF1F0997FF1FC3
:1035000030B4204A204B14781B78204A2049127886
:103510001B1B0833DBB2CC5CB2B1032A12D1302CB6
:103520008CBF30223122CA541A4A002302F108000B
:1035300012F8011F5B00C90748BF01338242F7D16F
:10354000154A136030BC7047062B0FD00122154678
:1035500028B12F32A242F5DA641BCC54F2E7C2F153
:1035600039029442EEDC2C44CC54EBE70B4A12783F
:103570000A2AEBD90A4DA5FB0252D5082A46002893
:10358000EDD0E6E79C94FF1F4398FF1F4298FF1F72
:103590004C97FF1F4B97FF1F8CB8FF1F0097FF1F13
:1035A000CDCCCCCC324B1B78012B10B528D016D308
:1035B000032B13D12F4C2268002854D1013A2E49F5
:1035C000D2B22260A1F1080002F00103303301F809
:1035D000013D88424FEA5202F6D110BD10BD40BBFA
:1035E0002648244C0CF014F9254B20601B689842A7
:1035F00084BF23601846234B1978814235D910BD0A
:10360000214A137878B913B1013BDBB213701F4A1A
:10361000184952F823300B601D4A18480A21BDE8AA
:1036200010400CF0F7BE082BF1D80133DBB2137059
:10363000EDE712480F4C0CF0EBF8114B114A1B68E8
:1036400011782060984284BF236018465B1A834239
:10365000D5D3014421600B460D4A08480A21BDE834
:1036600010400CF0D7BE0132A9E7411AF2E700BFC3
:103670004298FF1F8CB8FF1F5497FF1F4C97FF1FE6
:1036800098BAFF1F0097FF1F9894FF1F0441010085
:10369000404401002DE9F041DFF86C81454E464F72
:1036A00082B04046012504F049F84046434904F001
:1036B0008FF803F05BFB2B463C220095022130463D
:1036C00007F05AFD304607F02DFF30463C490024F4
:1036D00007F0D0F92946304607F0C4F94146B582D3
:1036E000758274763748384E04F0C2FE02211120EC
:1036F00009F080FB0221142009F07CFB02210D203F
:1037000009F078FB02210B2009F074FB02210A204A
:1037100009F070FB02210C2009F06CFB29460920FE
:1037200009F068FB2946092009F050FB642008F0E5
:103730009DFE264B294620461C7003F0CDFA2449F5
:10374000244B254A25480C701D701570244B2549C3
:10375000254A04703570204602260C701D711C70BD
:103760005C709C701670FDF785FE204B2049324638
:10377000092514201D7009F0C7F83846072104F008
:103780000BFD3846082104F04FFD38460E2104F0A9
:103790008FFD184A184B147038461C7004F0BEFC9C
:1037A000164A1749174B147037220C701A7002B062
:1037B000BDE8F081DC97FF1FDC88FF1F801A060040
:1037C000304401002897FF1F6397FF1F0895FF1FD4
:1037D000EC96FF1FFE96FF1FFD96FF1FFC96FF1F36
:1037E0000497FF1FD097FF1FFF96FF1F9894FF1F9E
:1037F000D93300009994FF1F4497FF1FF496FF1FD1
:103800000197FF1F0495FF1F0488FF1FF0B5974C19
:10381000974A236885B0029302991368CB1AC82B84
:103820001ED9944D94482B780078116083F00103E1
:1038300075282B7000F07881904B1B7853B123686A
:103840008F4A0393039B12689B1AB3F5FA7F01D941
:10385000FDF7B2FCFFF786FA2B78002B40F0F180E1
:103860000B2009F0B9FA00285FD1864EB6F8023174
:10387000B3F5807F59D0844CE37AC3B172B6E37A52
:10388000D9071A4606D58148E26801681140A1614E
:103890001A4601609B0706D57D4A236911680B40D3
:1038A000E3611360E27A570700F1838162B623680F
:1038B000784AD968914206D0774D784878491D609A
:1038C000DA60186119600021092009F07FFA226886
:1038D0004FF000410723D1625363D36A002BFCDA17
:1038E000936B00254FF00047B6F80231B3F5807FA7
:1038F00002D0002D00F01B810121092009F066FA99
:10390000E37A61491A466BB1DE0703D5654A8969D6
:1039100011601A469D0700F14781500702D5624B9E
:10392000226A1A60614B01221A70614DB5F80231AA
:10393000002B3DD15F4C237D012B7DD972B6E3680E
:1039400062B65D4A11689B108B4204D02BDA5B494A
:103950000120087013605A4805F01CFC584805F017
:1039600025FB48B9574B1B786BB9574B1B780BB9E4
:10397000FEF79CFC05B0F0BD504B01229A70514BF4
:103980001B78002BF1D04E4805F0F2FA002840F0E9
:10399000C6804B4805F0FAFA0028E6D00021084618
:1039A00003F09AF9E1E7D5DD444901204870D1E7F9
:1039B000354C0021092009F009FAE37A002B40F088
:1039C0008F802368334AD968914206D0324E3348FB
:1039D00033491E60DA60186119603C490A78002A90
:1039E00000F0BC804FF000400922D8625A63DA6AC6
:1039F000002AFCDA00229B6B0A70A5F80221E37A08
:103A000021491A4683B1D80703D5264A896911602E
:103A10001A46990703D52E4BE2691A60E27A5307DA
:103A200002D5214B226A1A60224C0121092009F09B
:103A3000CDF9237D012B81D872B62046FFF7D2FC49
:103A40007DE72448244C04F0D9FC2060214804F090
:103A5000C9FC224B00251860294620680BF090FE17
:103A6000002840F0AD80FDF727FCF9E68CBBFF1F76
:103A70004899FF1F2797FF1FEC96FF1F6297FF1FB4
:103A8000C897FF1F0C95FF1FDC88FF1F80E100E037
:103A900084E100E00100023801403F0001000278AB
:103AA00000003F8000E100E008E100E04497FF1FD4
:103AB0004498FF1FB094FF1F0C97FF1F0497FF1F30
:103AC0006897FF1F95BAFF1FFD96FF1F9994FF1F70
:103AD00004E100E02897FF1FF096FF1FF896FF1FF4
:103AE00072B6E37AD9071A4606D53648E268016805
:103AF0001140A1611A4601609F0706D5324A236929
:103B000011680B40E3611360E27A560705D52F4A2E
:103B1000636911680B402362136062B651E70021AC
:103B2000102003F0D9F834E7FEF75CFD84E60220AC
:103B300009F066F92268D7625563D36A002BFCDA74
:103B4000916B2348C9B2FCF78FFE0B2009F044F9B2
:103B5000A0F10105B5FA85F56D09C5E64FF0004104
:103B60000822D9625A63DA6A002AFCDAB5F802211F
:103B70009B6B002A3FF443AF4FF00046022009F050
:103B80003FF90DF107011348FCF7D2FD22689DF8BB
:103B90000730D6625363D36A002BFCDAB5F80231E2
:103BA000926B002BEAD12AE70B4BE2691A60E27AAA
:103BB000B3E6064A636911680B402362136075E639
:103BC000256050E780E100E084E100E088E100E06A
:103BD0000C95FF1F4498FF1F04E100E030B441F64C
:103BE0003A7382B0C45A40F2E7339C4205468DE8EE
:103BF000060018D041F6387340F2E632EB5A2344FF
:103C000093429DE8030088BFA3F2E7339BB241F6DD
:103C10003A7205EBC30383E8030001340120AC5280
:103C200002B030BC7047002002B030BC704700BF0B
:103C3000F0B5654C85B0FFF7E9FD2378432B00F024
:103C400091806248624D05F0ADF908B30123EB7035
:103C5000604B1A7802BB604B1A7832B1227800218F
:103C60002B2A19705DD01C2A77D05C4B1B78002B57
:103C700040D15B4B1B78DBB92378022B23D0594B07
:103C80001B780BB9FDF7F4F800F00CFC05B0F0BDA3
:103C9000EB78002BDFD0DBE75348544F017800224C
:103CA00001310B260170BA741A70EA702670D2E7DF
:103CB00005F024F90028DFD04B4A13780133137044
:103CC0002378022BDBD14A4E33783BBBEB78002BB9
:103CD000D5D0052008F094FE4349464D0B78464860
:103CE0000133002207270B7001232F7002703270FE
:103CF0002370C4E7414807F00DFF0028B9D0404EBB
:103D00003E4807F013FF0BF045FB31680BF092FAC9
:103D10003C4A3060136801331360AAE7FDF744F9A9
:103D2000D4E702F085FE384841F63A7240F2E733B4
:103D3000825A9A420DD0354A354B12680192019A47
:103D40001B788DF80D30029204AB13E90600FFF7E3
:103D500045FFFEF7F1F9227885E702F069FE03F0EE
:103D600055FC82E70A2009F037F8051C06464FF09B
:103D70000C0018BF012509F02FF8264A1178031C02
:103D800018BF0123A942244916D09D4215700B701B
:103D900016D01F4B00221A70204B58B118780430EF
:103DA000C0B2187016B10830C0B21870002102F00D
:103DB00093FF46E71878F5E70F789F42E5D140E793
:103DC000164B0C201870F1E7EC96FF1F6897FF1F49
:103DD0000497FF1F95BAFF1F6497FF1F6297FF1F8D
:103DE00094BAFF1FFD96FF1F6397FF1FB094FF1F3C
:103DF0000997FF1FFF96FF1FD097FF1F1496FF1F05
:103E0000C497FF1FE896FF1F5099FF1F8CBBFF1F31
:103E10009A94FF1F4C99FF1FCC97FF1F0995FF1F16
:103E2000F0B587B0444B0293444A01924FF0FF3300
:103E300000934022424B4348434C802107F01AF83C
:103E4000424A43493F480AF0B5F94021414804F04D
:103E50007BFA3E4A40493F480AF0ACF90221102063
:103E600008F0C8FF02210F2008F0C4FF3B4BD3F835
:103E700080109A6F01F5007002F500730527062681
:103E8000002520600120636027744BF68033667440
:103E9000E56020726072013BFDD191F8003292F82A
:103EA00000222F4D2F492C64D20703EA000344BFA0
:103EB00043F00203DBB204221020A37208F024FDB9
:103EC000012304222849EC630F20237508F01CFD10
:103ED000257D264800230A27FA2640F6B8313222EB
:103EE000013502960191009203971A46257511211A
:103EF00005F068F9062205211D4805F019FA1D484C
:103F000005F0D2FC1C4B1D481B6805931C4B1D493A
:103F10001D4A059E1E6041F6387541F63A7400232D
:103F200043530353A1F80031A1F80231A2F8003144
:103F3000A2F8023107B0F0BDA0860100801A060089
:103F40000488FF1FDC97FF1FB094FF1FFC87FF1F33
:103F5000CDAE00002897FF1F5D830000B86501000B
:103F6000ECBAFF1FC9340000D93400006897FF1F66
:103F7000C894FF1FA094FF1F8CBBFF1F5099FF1F09
:103F8000C897FF1F0C95FF1F4498FF1F2DE9F04FA6
:103F9000A04DDFF8C8922B7899F8004083B063B148
:103FA000052C0AD8DFE814F0D1002700EC001D0131
:103FB000320106000020FFF7F5FA6B787BB9964FC7
:103FC0003E78AB784BB399F80030052B25D8DFE865
:103FD00013F051012300B2011A01B800C70099F88B
:103FE0000030052BEBD8DFE813F03D010B00710129
:103FF0005001C500BF006B78864A002B00F082811B
:10400000854B1E78002E40F06B81844FAB780022E8
:104010003A70002B00F08B810524DFF8448289F888
:104020000040032E00F04C817D4D0020FDF722FA68
:10403000002111230191009310228023284605F0CE
:10404000B3FD98F80020C2F10802D4B22021052364
:10405000072C2982EB8128D89B46704F714EDFF8E0
:10406000FCA112E0315D6E48013406F05DFCE4B263
:104070005FFA8BF307332022082CEB812A8214D0BD
:1040800098F800209B46C2F1080297F900301A44C4
:104090009442E7D199F80030042B35D0032BE1D1BD
:1040A0000021305DFCF7FAFEDCE75F4B1B78012B4B
:1040B0003CD033D3022B2ED15C4B1B78002B3DD14F
:1040C0005B4B5C4A1B78D05C0BF064F95A490BF0EF
:1040D0006DFA0AF085FD594ACDE9000110215148D9
:1040E0000CF098F94F480CF0EBF94E4902464C4859
:1040F00007F064FF524B534A1B684A480A2103B039
:10410000BDE8F04F0CF086B90121305DFCF7C6FE2A
:104110009AF80030C2E703B0BDE8F08F4A49404842
:10412000032203B0BDE8F04F07F048BF47493C48C1
:10413000032203B0BDE8F04F07F040BF3C4B444AB8
:10414000C0E7DFF81C81032469E76B78314A002B54
:1041500040F088809378304A1678002B40F08A80AF
:104160000124DFF8FC805AE72B4F0120FFF71AFAF1
:104170003E7826E7284F0020FFF7C2F93E7820E777
:10418000344BDFF8DC801B78244F092B98F8003083
:1041900094BF03F1FF33023B3B701F4F3E78002E6C
:1041A00000F0C080032E00F0FD802B4B1C78023CF9
:1041B000012C8CBF002401246B78164A002B40F0A0
:1041C00089809378002B3FF42AAF002E00F0B68050
:1041D000012E00F0C580032E00F0CB8089F800404E
:1041E00022E70E4F6A783B780A49013B5BB2002B0D
:1041F000B8BF01243B70002A4AD1074A8B78167851
:10420000002B3FF40AAFDFF8588057E00120FFF79A
:1042100077F9D2E60497FF1F4298FF1F4398FF1FCC
:10422000DC97FF1F4C97FF1FE496FF1F2497FF1F8B
:104230009894FF1FF8400100000020415044010005
:104240008CB8FF1F40440100484401004C44010069
:104250002C4101000097FF1FFC96FF1FFF96FF1FD8
:104260009C94FF1F554FAB7800223A70002B53D01F
:10427000534B1E78534A54491378DFF86C8101334D
:104280000020137008700824C9E64C4F97F90030DD
:104290004E4ADFF854811278092A98F8002003F179
:1042A00001035BB288BF02F1FF323B709342A8BFAB
:1042B0000224AB78002B37D0414B1E780424AEE6A5
:1042C000434A1078002102F007FDADE63C4FDFF8CD
:1042D00018813E78AB780124002B3FF4A0AE74E740
:1042E000032E3FF492AE3B4B1B78023B012B3FF673
:1042F0008CAEAB78002B7FF48FAE89F80030DFF8FE
:10430000E88091E693782E4A1678002B7FF484AEED
:104310000224DFF8D48082E6294BDFF8CC801E78B7
:1043200003247CE6032447E7254B1E7877E6032425
:10433000DFF8B48073E6DFF8B08046E72648244D06
:104340000BF066FA254B2860196888422CD81D4A64
:104350001D4913780E7001333E781370072437E738
:10436000184A194913780020013313700870072484
:1043700034E71B4A002302F1080012F8011F5B001A
:10438000C90748BF01338242F7D10E48104A01786D
:104390000D4C136000254B1C07210370257089F814
:1043A00000108EE7344607E70B4629600D4A0A489D
:1043B0000A210CF02FF83E780AE700BF4398FF1F50
:1043C0004298FF1F6397FF1FD097FF1F0097FF1FA3
:1043D0008CB8FF1FFC96FF1F4C97FF1F98BAFF1F5A
:1043E0004B97FF1F404401009C94FF1FF0B51A4BF0
:1043F000DFF890E0194C1A4D1A4F206085B00E4638
:1044000000218EF8021029701B68174A0A21022524
:1044100001A83D700BF0FEFF2368144A14480A21DE
:104420000BF0F8FF01A80CF04BF8124B12491B7867
:10443000124A0E70012B107007D0032B04BF104AD4
:104440001370FFF7A3FD05B0F0BD0D4B1D70FFF716
:104450009DFD05B0F0BD00BF98BAFF1F8CB8FF1FCF
:104460004398FF1FFF96FF1F604401004044010076
:104470004C97FF1F4298FF1F0097FF1F9C94FF1F40
:10448000E496FF1F0497FF1F70B5044608460D46CB
:104490000CF016F823680246294620465B68BDE802
:1044A000704018472DE9F04F444C237885B0002B1D
:1044B00040F088806378002B00F00681404D2A7818
:1044C000782A01F24885DFE812F0D9052902460D65
:1044D000E204460DD404460D8604460D79045C05BD
:1044E000C704460D4F05460D9C03F302E602D902B0
:1044F000460D460D460D460DCC02460D210407041F
:104500001404460DBF02460D9F05770549043B0480
:10451000460D9105460DFD04460D1A030D03C60513
:10452000460D6905460DAC05460DD003460DB9058F
:10453000AD048405460D9302460D5F04460D5604F6
:10454000460DED03460DE00341033403460DFA0327
:10455000460D2703460D8F0375038203460D4E0358
:10456000460D6803460D460D460D460D460D5B0390
:10457000B202460D9C02460D460D3505460DF0046F
:1045800028052E04460DA004460D93041B050003C8
:10459000460DC303460DB603BA04A903460D460DE6
:1045A0004205460D6C040E0586027902460D5F0237
:1045B0006C025102460D4402460D37020497FF1F5C
:1045C000EC96FF1F3F4D2B78782B01F2B584DFE886
:1045D00013F05105A201B30C5B04B30C4D04B30CF2
:1045E000FF03B30CF203D5044004B30CC804B30CAE
:1045F00015036C025F025202B30CB30CB30CB30C84
:104600004502B30C9A0380038D03B30C3802B30C3C
:104610001805F004C203B403B30C0A05B30C760406
:10462000B30C930286023F05B30CE204B30C2505DC
:10463000B30C4903B30C32052604FD04B30C0C0281
:10464000B30CD803B30CCF03B30C6603B30C5903FC
:10465000BA02AD02B30C7303B30CA002B30C08038F
:10466000EE02FB02B30CC702B30CE102B30CB30CB5
:10467000B30CB30CB30CD4022B02B30C1502B30C65
:10468000B30CAE04B30C6904A104A703B30C190462
:10469000B30C0C0494047902B30C3C03B30C2F0349
:1046A00033042203B30CB30CBB04B30CE50387043F
:1046B000FF01F201B30CD801E501CA01B30CBD0141
:1046C000B30CB001EC96FF1FA378002B7FD0464DB2
:1046D0002B78782B01F23F84DFE813F0D20423011A
:1046E0003D0CDC033D0CCE033D0C80033D0C7303FD
:1046F0005604C1033D0C49043D0C9602ED01E00156
:10470000D3013D0C3D0C3D0C3D0CC6013D0C1B0383
:1047100001030E033D0CB9013D0C990471044303E0
:1047200035033D0C8B043D0CF7033D0C14020702CE
:10473000C0043D0C63043D0CA6043D0CCA023D0CB4
:10474000B304A7037E043D0C8D013D0C59033D0CC1
:1047500050033D0CE7023D0CDA023B022E023D0CF9
:10476000F4023D0C21023D0C89026F027C023D0CDB
:1047700048023D0C62023D0C3D0C3D0C3D0C3D0CD5
:104780005502AC013D0C96013D0C3D0C2F043D0C37
:10479000EA03220428033D0C9A033D0C8D03150403
:1047A000FA013D0CBD023D0CB002B403A3023D0C66
:1047B0003D0C3C043D0C66030804800173013D0C74
:1047C000590166014B013D0C3E013D0C3101074E84
:1047D00033787BB90023064823706370A37006F01A
:1047E000ADFF05B0BDE8F08FEC96FF1F6397FF1F8C
:1047F000DC97FF1F884F894D4FF00008212300935D
:10480000102280233846CDF80480414605F0CCF9CB
:104810002B78A7F80E801C223A82782B00F258865B
:10482000DFE813F0860A910A630A730A680A91079F
:10483000870775076B0759074F073D072E071C07AA
:104840001207270A1C0A000AED0956064D0A5606E9
:1048500056063A0A580ADA09C509B209D0099F0969
:104860009409430938091C090007F606E406DA062C
:10487000C806BE06AC06A2069006860674066A0640
:10488000580656060906FF05570B4C0BF60A560646
:10489000D00AC40AB10AA40A770B6A0B0909FE08F8
:1048A000EB08E008CD08C808970892087F0874084C
:1048B000B508AA08610856084308390827085606AB
:1048C00056065606560656061D080B08FF07E4074F
:1048D00056065606A307EB05D905F50569056005DB
:1048E0004E0544053205A90597058D057B05C505CF
:1048F000B305CF052005170556060505FB04E90499
:10490000DF04C404B20490047E04740462045204FC
:1049100035048E0BE30A092263782A700BB1032356
:104920002B70A3783E4F002B41F005853D4E337828
:104930009BE3762263782A700BB174232B70A378E3
:10494000384E002B41F0158333788EE37422637860
:104950002A700BB178232B70A378002B41F046838B
:10496000304E337881E3782263782A700BB1762356
:104970002B70A3782A4A2B4E002B41F057833378B3
:1049800073E3702263782A700BB16F232B70A378C6
:10499000244E002B41F02583337866E36E22637842
:1049A0002A700BB100232B70A3781E4E002B41F010
:1049B0002683337859E3552263782A700BB172232A
:1049C0002B70A378002B41F05083164E33784CE3C4
:1049D000722263782A700BB170232B70A378002B9E
:1049E00041F0B2830F4E33783FE3342263782A706C
:1049F000002B41F022830B4E337836E35322637849
:104A00002A700BB158232B70A378002B41F0D5826C
:104A1000044E337829E300BFDC97FF1FEC96FF1F9D
:104A20000497FF1F6397FF1F5A2263782A700BB108
:104A300055232B70A378002B41F04284904E33789D
:104A400013E31B2263782A700BB11F232B70A3780A
:104A5000002B41F0F8828A4E337806E31222637805
:104A60002A700BB119232B70A378002B41F0B08270
:104A7000834E3378F9E2112263782A700BB1172341
:104A80002B70A378002B41F0D3847D4E3378ECE279
:104A9000192263782A700BB112232B70A378002B94
:104AA00041F04183764E3378DFE20A2263782A7040
:104AB0000BB11A232B70A378714E002B41F0C683E3
:104AC0003378D2E2662263782A700BB164232B70AC
:104AD000A378002B41F06684694E3378C5E220222A
:104AE00063782A700BB133232B70A378644E002BAC
:104AF00041F0A2833378B8E2262263782A700BB1A2
:104B000021232B70A3785E4E002B41F0BC823378BA
:104B1000ABE2422263782A700BB146232B70A37854
:104B2000002B41F09982564E33789EE246226378FC
:104B30002A700BB142232B70A378002B41F04885DB
:104B40004F4E337891E2332263782A700BB14723BA
:104B50002B70A3784A4E002B41F06083337884E2B7
:104B6000482263782A700BB14C232B70A378002B5A
:104B700041F04A82424E337877E2472263782A70C6
:104B80000BB15B232B70A3783D4E002B41F0768256
:104B900033786AE24A2263782A700BB148232B707B
:104BA000A378374E002B41F0038233785DE23F2239
:104BB00063782A700BB152232B70A378304E002BF0
:104BC00041F0D281337850E24C2263782A700BB1E5
:104BD0004A232B70A378002B41F01F82284E337894
:104BE00043E2442263782A700BB140232B70A378F0
:104BF000234E002B41F04C83337836E20D2263784C
:104C00002A700BB10B232B70A3781D4E002B41F0A3
:104C10004483337829E26D2263782A700BB16B23C9
:104C20002B70A378002B41F0C384154E33781CE21F
:104C3000642263782A700BB162232B70A378104E24
:104C4000002B41F0388233780FE2622263782A70B9
:104C50000BB166232B70A378002B41F09E82084E87
:104C6000337802E22E2263782A700BB132232B7044
:104C7000A378002B41F02482014E3378F5E100BF88
:104C80006397FF1F3C2263782A700BB134232B708B
:104C9000A378914E002B41F0B6823378E5E13A22B9
:104CA00063782A700BB13E232B70A378002B41F060
:104CB0007681894E3378D8E1402263782A700BB12F
:104CC00044232B70A378002B41F06184824E33780B
:104CD000CBE1102263782A700BB120232B70A378CC
:104CE0007D4E002B41F0D4813378BEE11F226378E2
:104CF0002A700BB11D232B70A378002B41F0CD81BE
:104D0000754E3378B1E1172263782A700BB1112305
:104D10002B70A378704E002B41F093823378A4E17E
:104D2000602263782A700BB15E232B70A378002B6E
:104D300041F06E83684E337897E1212263782A70C0
:104D40000BB124232B70A378644F002B41F05184C6
:104D5000614E337889E1282263782A700BB12223CF
:104D60002B70A378002B41F00E815B4E33787CE1F1
:104D7000382263782A70002B41F04A82564E3378ED
:104D800073E1362263782A700BB13A232B70A37833
:104D9000002B41F05E84504E337866E16B226378DD
:104DA0002A700BB168232B70A3784B4E002B41F077
:104DB0005282337859E1072263782A700BB10123BC
:104DC0002B70A378444E002B41F0708133784CE176
:104DD000052263782A700BB109232B70A378002B6E
:104DE00041F008823C4E33783FE15E2263782A70BE
:104DF0000BB15C232B70A378374E002B41F0BE80A3
:104E0000337832E15C2263782A700BB160232B7017
:104E1000A378002B41F0AF812F4E337825E1292272
:104E200063782A700BB13F232B70A3782A4E002B96
:104E300041F01F82337818E1612263782A700BB148
:104E40006E232B70A378244E002B41F02B823378F5
:104E50000BE10F2263782A700BB10D232B70A3781E
:104E6000002B41F035831C4E3378FEE0032263783B
:104E70002A700BB107232B70A378184F002B41F039
:104E8000A982154E3378F0E0012263782A700BB1C5
:104E900005232B70A378114E002B41F025820E4E76
:104EA0003378E2E0582263782A700BB153232B70D9
:104EB000A378094E002B41F00C813378D5E02422F1
:104EC00063782A700BB128232B70A378002B41F054
:104ED000C781014E3378C8E06397FF1F0497FF1F17
:104EE000672263782A700BB173232B70A3789A4ED4
:104EF000002B41F0C8813378B7E05B2263782A70D9
:104F00000BB167232B70A378934E002B41F0B68131
:104F10003378AAE0522263782A700BB161232B7098
:104F2000A3788D4E002B41F0F98033789DE0552217
:104F300063782A700BB15A232B70A378002B41F0B1
:104F40007281854E337890E0682263782A700BB1C5
:104F50006D232B70A378002B41F0A9817E4E33780E
:104F600083E00B2263782A700BB10F232B70A37898
:104F7000002B41F00981784E337876E00022637887
:104F80002A700BB110232B70A378734E002B41F0C5
:104F9000D680337869E02A2263782A700BB12E23F9
:104FA0002B70A3786D4F002B41F0DD816A4E337872
:104FB0005BE01A2263782A700BB129232B70A37847
:104FC000654E002B41F08A8033784EE03E226378B4
:104FD0002A700BB136232B70A378002B41F08C8004
:104FE0005D4E337841E0222263782A700BB126238C
:104FF0002B70A378594F002B41F0B882564E33786E
:1050000033E01D2263782A700BB11B232B70A37829
:10501000514E002B41F0AA80337826E02C22637891
:105020002A700BB130232B70A378002B41F05B80EA
:10503000494E337819E0302263782A700BB12A2365
:105040002B70A378444E002B41F0B08033780CE0F5
:10505000322263782A700BB12C232B70A3783F4F38
:10506000002B41F0D7823C4E33780133DBB23370F2
:10507000FFF7AFBB637873222A700BB10A232B7042
:10508000A378354E002B40F06A873378EDE7002097
:10509000FCF7F0F90A223249324806F08FFF314816
:1050A00006F0A2FF0C2230492E4806F087FF337825
:1050B000012B02D9FCF700F93378002B3FF48AABBF
:1050C000013B3370FFF786BBFDF78CFA274B1B784B
:1050D000072B3378ECD126490133DBB20020742250
:1050E000337008702A70E3E70020FCF7C3F90A2246
:1050F0001B491C4806F062FF1A4806F075FF0D2296
:105100001C49184806F05AFF3378D1E70020FCF715
:10511000B1F909221849134806F050FF3378C7E760
:105120000020FCF7A7F9102214490E4806F046FFAC
:105130000C4806F059FF0E2211490A4806F03EFFBE
:105140003378B5E70F48FDF7F3FC084A1378072BCF
:1051500001F081833378ABE76397FF1F0497FF1F4C
:1051600038510100DC97FF1F704D0100FF96FF1FB3
:10517000FC96FF1F445101002C510100F850010022
:105180001C510100305401000020FCF773F910227B
:10519000B249B34806F012FFB14806F025FF0C22D1
:1051A000B049AF4806F00AFF337881E70020FCF7EA
:1051B00061F91022A949AA4806F000FFA84806F0A4
:1051C00013FFA949A6480F2206F0F8FEA74BA448F2
:1051D0001B789B074CBFA649A649FFF755F93378C2
:1051E00066E70020FCF746F90F22A3499C4806F029
:1051F000E5FE33785CE70020FCF73CF908229F4984
:10520000974806F0DBFE964806F0EEFE0D229C491C
:10521000934806F0D3FE33784AE79A4F9A48FDF751
:1052200087FC3B78072B01F0CA83337840E70020E6
:10523000FCF720F908229149894806F0BFFE88480A
:1052400006F0D2FE0C228749854806F0B7FE337877
:105250002EE7FCF753FA8B4A1378072B01F04883AB
:10526000337825E70020FCF705F9082283497C48BC
:1052700006F0A4FE7A4806F0B7FE0B228349784870
:1052800006F09CFE337813E70020FCF7F3F80622C3
:105290007F49734806F092FE714806F0A5FE0B2286
:1052A0007C496F4806F08AFE337801E77A48FDF7BB
:1052B0003FFC744A1378072B01F010833378F7E62C
:1052C0000020FCF7D7F806227149654806F076FE03
:1052D000634806F089FE0C226249614806F06EFEC2
:1052E0003378E5E6FCF70AFA664A1378072B01F0F3
:1052F00036823378DCE60020FCF7BCF806226449ED
:10530000574806F05BFE564806F06EFE09226349D8
:10531000534806F053FE3378CAE60020FCF7AAF89B
:1053200009225F494E4806F049FE4D4806F05CFEF2
:105330000C224C494A4806F041FE3378B8E6514FFA
:10534000FEF724FE3B78073B012B41F24B83337879
:10535000AEE60020FCF78EF809225149404806F0DD
:105360002DFE3F4806F040FE0A224E493C4806F01A
:1053700025FE33789CE60020FCF77CF808224A4999
:10538000374806F01BFE337892E60020FCF772F8EF
:1053900009224349324806F011FE314806F024FE46
:1053A0000E2242492E4806F009FE337880E6404836
:1053B000FDF7BEFB334A1378072B01F0A382337845
:1053C00076E60020FCF756F807223A49244806F012
:1053D000F5FD33786CE60020FCF74CF807223649DF
:1053E0001F4806F0EBFD1E4806F0FEFD0C22334977
:1053F0001B4806F0E3FD33785AE63148FDF798FB89
:10540000204A1378072B01F0B481337850E600204E
:10541000FCF730F805222B49114806F0CFFD337810
:1054200046E62948FDF784FB164A1378072B01F05E
:10543000AA8133783CE60020FCF71CF80C222349B3
:10544000074806F0BBFD064806F0CEFD0C220549D4
:10545000034806F0B3FD33782AE600BFF850010098
:10546000DC97FF1F704D01000C5101000895FF1FD4
:10547000F84D0100F44D0100E8500100C05001005A
:10548000D8500100FF96FF1F084D0100CC500100CD
:105490006450010078500100644401006C50010028
:1054A000905001009C50010084500100A850010060
:1054B0008C520100B8500100085001004C5001000E
:1054C000F04901005C50010090450100BC4E010014
:1054D0003378EDE50020FBF7CDFF0C22AC49AD4859
:1054E00006F06CFDAB4806F07FFD0D22AA49A948E5
:1054F00006F064FD3378DBE5FBF7E4FCA74A13789C
:10550000073B012B41F249813378D1E50020FBF7BD
:10551000B1FF0C229E499F4806F050FD9D4806F0C1
:1055200063FD0B229E499B4806F048FD3378BFE59A
:10553000FCF702FE994A1378073B012B41F23981AF
:105540003378B5E50020FBF795FF0C229049914890
:1055500006F034FD8F4806F047FD0D2291498D4835
:1055600006F02CFD3378A3E50020FBF783FF0B2228
:105570008D49884806F022FD337899E50020FBF735
:1055800079FF09228949834806F018FD814806F011
:105590002BFD0E2286497F4806F010FD337887E503
:1055A0008448FDF7C5FA7D4A1378072B01F00D8179
:1055B00033787DE50020FBF75DFF09227B497548C4
:1055C00006F0FCFC734806F00FFD0C227A49714886
:1055D00006F0F4FC33786BE5FCF7E0FC6F4A1378D7
:1055E000073B012B41F2FB80337861E50020FBF79C
:1055F00041FF09226D49674806F0E0FC654806F066
:10560000F3FC0E226D49634806F0D8FC33784FE571
:10561000FCF716FC614A1378073B012B41F2E98045
:10562000337845E50020FBF725FF09225F495948FB
:1056300006F0C4FC574806F0D7FC112260495548D3
:1056400006F0BCFC337833E55E48FDF771FA534A47
:105650001378072B01F0D780337829E50020FBF77A
:1056600009FF082258494B4806F0A8FC494806F0B3
:10567000BBFC0C225049474806F0A0FC337817E5E4
:105680002278524B002A41F00B805A78002A41F0D0
:1056900007809B78002B41F00380337808E50020D9
:1056A000FBF7E8FE082248493A4806F087FC3948EB
:1056B00006F09AFC14224649364806F07FFC3378FF
:1056C000F6E40020FBF7D6FE07224249314806F0F7
:1056D00075FC3378ECE40020FBF7CCFE08223E4951
:1056E0002C4806F06BFC2B4806F07EFC0D223B4953
:1056F000284806F063FC3378DAE43948FDF718FAF5
:10570000264B1A78072A00F0F9873378D0E4002076
:10571000FBF7B0FE082230491E4806F04FFC1D483A
:1057200006F062FC0C2224491A4806F047FC337844
:10573000BEE41A4FFBF76EFC3B78073B012B41F2AE
:1057400029813378B4E40020FBF794FE0822224933
:10575000104806F033FC0F4806F046FC11222149A0
:105760000C4806F02BFC3378A2E40020FBF782FE05
:1057700007221D49074806F021FC064806F034FCC4
:105780000C220D49034806F019FC337890E400BF61
:10579000BC4E0100DC97FF1FE84E0100FF96FF1F83
:1057A000DC4E0100CC4E0100B04E0100704E0100F5
:1057B000A04E01008C4B0100704D0100904E010085
:1057C0007C4E0100B8470100984D01000497FF1F6F
:1057D000A44D0100904D01002C4D0100804D0100B1
:1057E000AC4501005C4D0100085001000020FBF7B2
:1057F00041FE0722B649B74806F0E0FBB54806F07F
:10580000F3FBB549B348082206F0D8FBB34BB148C7
:105810001B785A074CBFB249B249FEF735FE3378C0
:1058200046E4FEF7B3FBB04A1378072B00F0588725
:10583000082B00F04B8733783AE40020FBF71AFE80
:105840000722A349A34806F0B9FBA24806F0CCFB07
:105850000D22A6499F4806F0B1FB337828E40020CA
:10586000FBF708FE0622A2499A4806F0A7FB337808
:105870001EE40020FBF7FEFD10229E49954806F02D
:105880009DFB944806F0B0FB0F229B49914806F01F
:1058900095FB33780CE49948FDF74AF9924A13785E
:1058A000072B00F0C487337802E40020FBF7E2FD09
:1058B00010229049874806F081FB864806F094FB49
:1058C0000C228F49834806F079FB3378FFF7F0BB51
:1058D000FCF7D4FE844A1378073B012B40F2B187D2
:1058E0003378FFF7E5BB0020FBF7C4FD10228149A8
:1058F000784806F063FB774806F076FB0D22814975
:10590000744806F05BFB3378FFF7D2BB7E48FDF7A7
:105910000FF9754A1378072B01F016803378FFF7DB
:10592000C7BB0020FBF7A6FD0B227849694806F0AB
:1059300045FB684806F058FB0C227149654806F0A3
:105940003DFB3378FFF7B4BBFCF75EF93378FFF724
:10595000AFBB0020FBF78EFD0B226C495D4806F0C3
:105960002DFB5C4806F040FB0E226949594806F0C1
:1059700025FB3378FFF79CBB0020FBF77BFD0F2254
:105980006449544806F01AFB3378FFF791BB0020B6
:10599000FBF770FD0B225D494E4806F00FFB4D48AA
:1059A00006F022FB10225C494A4806F007FB3378D8
:1059B000FFF77EBBFCF77AFC3378FFF779BB00205A
:1059C000FBF758FD0B225149424806F0F7FA4148CF
:1059D00006F00AFB0D2251493E4806F0EFFA3378F3
:1059E000FFF766BB0020FBF745FD0A224C4939480A
:1059F00006F0E4FA3378FFF75BBB0020FBF73AFDD3
:105A00000E224849334806F0D9FA324806F0ECFA3B
:105A10000B2245492F4806F0D1FA3378FFF748BBEF
:105A20004248FDF785F8304A1378072B00F0968737
:105A30003378FFF73DBB0020FBF71CFD0E223949F0
:105A4000244806F0BBFA234806F0CEFA0C222C4973
:105A5000204806F0B3FA3378FFF72ABB0020FBF7A3
:105A600009FD092232491B4806F0A8FA194806F038
:105A7000BBFA0A222F49174806F0A0FA2E4B1B78D2
:105A8000002B00F015862D491248FEF7FDFC3378F7
:105A9000FFF70EBB0020FBF7EDFC082228490D485C
:105AA00006F08CFA3378FFF703BB0020FBF7E2FC2B
:105AB0000D222449074806F081FA064806F094FAB8
:105AC00012222149034806F079FA3378FFF7F0BA39
:105AD00008500100DC97FF1F205001000895FF1FB0
